{
  "_format": "hh-sol-artifact-1",
  "contractName": "Staking",
  "sourceName": "contracts/Staking.sol",
  "abi": [
    {
      "inputs": [
        {
          "internalType": "uint256",
          "name": "_start",
          "type": "uint256"
        },
        {
          "internalType": "address",
          "name": "tokenAddress",
          "type": "address"
        }
      ],
      "stateMutability": "nonpayable",
      "type": "constructor"
    },
    {
      "inputs": [
        {
          "internalType": "address",
          "name": "owner",
          "type": "address"
        }
      ],
      "name": "OwnableInvalidOwner",
      "type": "error"
    },
    {
      "inputs": [
        {
          "internalType": "address",
          "name": "account",
          "type": "address"
        }
      ],
      "name": "OwnableUnauthorizedAccount",
      "type": "error"
    },
    {
      "inputs": [],
      "name": "ReentrancyGuardReentrantCall",
      "type": "error"
    },
    {
      "anonymous": false,
      "inputs": [
        {
          "indexed": true,
          "internalType": "address",
          "name": "previousOwner",
          "type": "address"
        },
        {
          "indexed": true,
          "internalType": "address",
          "name": "newOwner",
          "type": "address"
        }
      ],
      "name": "OwnershipTransferred",
      "type": "event"
    },
    {
      "anonymous": false,
      "inputs": [
        {
          "indexed": true,
          "internalType": "address",
          "name": "user",
          "type": "address"
        },
        {
          "indexed": false,
          "internalType": "uint256",
          "name": "amount",
          "type": "uint256"
        },
        {
          "indexed": false,
          "internalType": "uint256",
          "name": "lockPeriod",
          "type": "uint256"
        }
      ],
      "name": "Staked",
      "type": "event"
    },
    {
      "anonymous": false,
      "inputs": [
        {
          "indexed": true,
          "internalType": "address",
          "name": "user",
          "type": "address"
        },
        {
          "indexed": false,
          "internalType": "uint256",
          "name": "amount",
          "type": "uint256"
        }
      ],
      "name": "Unstaked",
      "type": "event"
    },
    {
      "anonymous": false,
      "inputs": [
        {
          "indexed": true,
          "internalType": "address",
          "name": "user",
          "type": "address"
        },
        {
          "indexed": false,
          "internalType": "uint256",
          "name": "amount",
          "type": "uint256"
        }
      ],
      "name": "Withdraw",
      "type": "event"
    },
    {
      "inputs": [
        {
          "internalType": "uint256",
          "name": "amount",
          "type": "uint256"
        },
        {
          "internalType": "uint256",
          "name": "rate",
          "type": "uint256"
        }
      ],
      "name": "calculateReward",
      "outputs": [
        {
          "internalType": "uint256",
          "name": "",
          "type": "uint256"
        }
      ],
      "stateMutability": "pure",
      "type": "function"
    },
    {
      "inputs": [
        {
          "internalType": "uint256",
          "name": "amount",
          "type": "uint256"
        }
      ],
      "name": "depositRewards",
      "outputs": [],
      "stateMutability": "nonpayable",
      "type": "function"
    },
    {
      "inputs": [
        {
          "internalType": "uint256",
          "name": "",
          "type": "uint256"
        },
        {
          "internalType": "uint256",
          "name": "",
          "type": "uint256"
        }
      ],
      "name": "extraRewardRates",
      "outputs": [
        {
          "internalType": "uint256",
          "name": "",
          "type": "uint256"
        }
      ],
      "stateMutability": "view",
      "type": "function"
    },
    {
      "inputs": [],
      "name": "fee",
      "outputs": [
        {
          "internalType": "uint256",
          "name": "",
          "type": "uint256"
        }
      ],
      "stateMutability": "view",
      "type": "function"
    },
    {
      "inputs": [],
      "name": "getAllUsers",
      "outputs": [
        {
          "components": [
            {
              "internalType": "address",
              "name": "account",
              "type": "address"
            },
            {
              "components": [
                {
                  "internalType": "uint256",
                  "name": "stakedAmount",
                  "type": "uint256"
                },
                {
                  "internalType": "uint256",
                  "name": "withdrawAmount",
                  "type": "uint256"
                },
                {
                  "internalType": "uint256",
                  "name": "rewardAmount",
                  "type": "uint256"
                },
                {
                  "internalType": "uint256",
                  "name": "start",
                  "type": "uint256"
                },
                {
                  "internalType": "uint256",
                  "name": "apy",
                  "type": "uint256"
                },
                {
                  "internalType": "uint256",
                  "name": "rewardRate",
                  "type": "uint256"
                }
              ],
              "internalType": "struct Staking.StakedData[]",
              "name": "stakes",
              "type": "tuple[]"
            }
          ],
          "internalType": "struct Staking.User[]",
          "name": "",
          "type": "tuple[]"
        }
      ],
      "stateMutability": "view",
      "type": "function"
    },
    {
      "inputs": [
        {
          "internalType": "uint256",
          "name": "leftPercent",
          "type": "uint256"
        },
        {
          "internalType": "uint256",
          "name": "lockPeriod",
          "type": "uint256"
        }
      ],
      "name": "getExtraRewardRateForExtendAPY",
      "outputs": [
        {
          "internalType": "uint256",
          "name": "",
          "type": "uint256"
        }
      ],
      "stateMutability": "view",
      "type": "function"
    },
    {
      "inputs": [
        {
          "internalType": "uint256",
          "name": "lockPeriod",
          "type": "uint256"
        }
      ],
      "name": "getInitialRewardRateForAPY",
      "outputs": [
        {
          "internalType": "uint256",
          "name": "",
          "type": "uint256"
        }
      ],
      "stateMutability": "view",
      "type": "function"
    },
    {
      "inputs": [],
      "name": "getMyCurrentRewardingAmount",
      "outputs": [
        {
          "internalType": "uint256",
          "name": "withdrawableAmount",
          "type": "uint256"
        }
      ],
      "stateMutability": "view",
      "type": "function"
    },
    {
      "inputs": [],
      "name": "getMyStakedHistory",
      "outputs": [
        {
          "components": [
            {
              "internalType": "uint256",
              "name": "stakedAmount",
              "type": "uint256"
            },
            {
              "internalType": "uint256",
              "name": "withdrawAmount",
              "type": "uint256"
            },
            {
              "internalType": "uint256",
              "name": "rewardAmount",
              "type": "uint256"
            },
            {
              "internalType": "uint256",
              "name": "start",
              "type": "uint256"
            },
            {
              "internalType": "uint256",
              "name": "apy",
              "type": "uint256"
            },
            {
              "internalType": "uint256",
              "name": "rewardRate",
              "type": "uint256"
            }
          ],
          "internalType": "struct Staking.StakedData[]",
          "name": "",
          "type": "tuple[]"
        }
      ],
      "stateMutability": "view",
      "type": "function"
    },
    {
      "inputs": [
        {
          "internalType": "uint256",
          "name": "_start",
          "type": "uint256"
        },
        {
          "internalType": "uint256",
          "name": "lockPeriod",
          "type": "uint256"
        }
      ],
      "name": "hasLockPeriodPassed",
      "outputs": [
        {
          "internalType": "bool",
          "name": "",
          "type": "bool"
        }
      ],
      "stateMutability": "view",
      "type": "function"
    },
    {
      "inputs": [],
      "name": "owner",
      "outputs": [
        {
          "internalType": "address",
          "name": "",
          "type": "address"
        }
      ],
      "stateMutability": "view",
      "type": "function"
    },
    {
      "inputs": [],
      "name": "renounceOwnership",
      "outputs": [],
      "stateMutability": "nonpayable",
      "type": "function"
    },
    {
      "inputs": [
        {
          "internalType": "uint256",
          "name": "",
          "type": "uint256"
        }
      ],
      "name": "rewardRates",
      "outputs": [
        {
          "internalType": "uint256",
          "name": "",
          "type": "uint256"
        }
      ],
      "stateMutability": "view",
      "type": "function"
    },
    {
      "inputs": [
        {
          "internalType": "uint256",
          "name": "_fee",
          "type": "uint256"
        }
      ],
      "name": "setFee",
      "outputs": [],
      "stateMutability": "nonpayable",
      "type": "function"
    },
    {
      "inputs": [
        {
          "internalType": "uint256",
          "name": "lockPeriod",
          "type": "uint256"
        },
        {
          "internalType": "uint256",
          "name": "rate",
          "type": "uint256"
        }
      ],
      "name": "setRewardRate",
      "outputs": [],
      "stateMutability": "nonpayable",
      "type": "function"
    },
    {
      "inputs": [
        {
          "internalType": "uint256",
          "name": "amount",
          "type": "uint256"
        },
        {
          "internalType": "uint256",
          "name": "lockPeriod",
          "type": "uint256"
        }
      ],
      "name": "stake",
      "outputs": [],
      "stateMutability": "nonpayable",
      "type": "function"
    },
    {
      "inputs": [],
      "name": "start",
      "outputs": [
        {
          "internalType": "uint256",
          "name": "",
          "type": "uint256"
        }
      ],
      "stateMutability": "view",
      "type": "function"
    },
    {
      "inputs": [],
      "name": "token",
      "outputs": [
        {
          "internalType": "contract IERC20",
          "name": "",
          "type": "address"
        }
      ],
      "stateMutability": "view",
      "type": "function"
    },
    {
      "inputs": [
        {
          "internalType": "address",
          "name": "newOwner",
          "type": "address"
        }
      ],
      "name": "transferOwnership",
      "outputs": [],
      "stateMutability": "nonpayable",
      "type": "function"
    },
    {
      "inputs": [
        {
          "internalType": "uint256",
          "name": "lockPeriod",
          "type": "uint256"
        }
      ],
      "name": "unstake",
      "outputs": [
        {
          "internalType": "uint256",
          "name": "",
          "type": "uint256"
        }
      ],
      "stateMutability": "nonpayable",
      "type": "function"
    },
    {
      "inputs": [
        {
          "internalType": "uint256",
          "name": "",
          "type": "uint256"
        }
      ],
      "name": "userAddresses",
      "outputs": [
        {
          "internalType": "address",
          "name": "",
          "type": "address"
        }
      ],
      "stateMutability": "view",
      "type": "function"
    },
    {
      "inputs": [
        {
          "internalType": "address",
          "name": "",
          "type": "address"
        }
      ],
      "name": "users",
      "outputs": [
        {
          "internalType": "address",
          "name": "account",
          "type": "address"
        }
      ],
      "stateMutability": "view",
      "type": "function"
    },
    {
      "inputs": [
        {
          "internalType": "uint256",
          "name": "lockPeriod",
          "type": "uint256"
        },
        {
          "internalType": "uint256",
          "name": "leftStakePercent",
          "type": "uint256"
        }
      ],
      "name": "withdraw",
      "outputs": [
        {
          "internalType": "bool",
          "name": "",
          "type": "bool"
        }
      ],
      "stateMutability": "nonpayable",
      "type": "function"
    }
  ],
  "bytecode": "0x6080604052600160025534801561001557600080fd5b50604051612f96380380612f9683398181016040528101906100379190610501565b33600073ffffffffffffffffffffffffffffffffffffffff168173ffffffffffffffffffffffffffffffffffffffff16036100aa5760006040517f1e4fbdf70000000000000000000000000000000000000000000000000000000081526004016100a19190610550565b60405180910390fd5b6100b9816103a460201b60201c565b50600180819055508160038190555080600460006101000a81548173ffffffffffffffffffffffffffffffffffffffff021916908373ffffffffffffffffffffffffffffffffffffffff160217905550600560066000601e815260200190815260200160002081905550600860066000603c815260200190815260200160002081905550600a60066000605a815260200190815260200160002081905550600c600660006078815260200190815260200160002081905550600f6006600060b4815260200190815260200160002081905550603260076000601e815260200190815260200160002060006064815260200190815260200160002081905550601960076000601e815260200190815260200160002060006032815260200190815260200160002081905550600c60076000601e815260200190815260200160002060006019815260200190815260200160002081905550606460076000603c815260200190815260200160002060006064815260200190815260200160002081905550603260076000603c815260200190815260200160002060006032815260200190815260200160002081905550601960076000603c81526020019081526020016000206000601981526020019081526020016000208190555060c860076000605a815260200190815260200160002060006064815260200190815260200160002081905550606460076000605a81526020019081526020016000206000603281526020019081526020016000208190555061012c60076000607881526020019081526020016000206000606481526020019081526020016000208190555060966007600060788152602001908152602001600020600060328152602001908152602001600020819055506101906007600060b481526020019081526020016000206000606481526020019081526020016000208190555060c86007600060b4815260200190815260200160002060006032815260200190815260200160002081905550505061056b565b60008060009054906101000a900473ffffffffffffffffffffffffffffffffffffffff169050816000806101000a81548173ffffffffffffffffffffffffffffffffffffffff021916908373ffffffffffffffffffffffffffffffffffffffff1602179055508173ffffffffffffffffffffffffffffffffffffffff168173ffffffffffffffffffffffffffffffffffffffff167f8be0079c531659141344cd1fd0a4f28419497f9722a3daafe3b4186f6b6457e060405160405180910390a35050565b600080fd5b6000819050919050565b6104808161046d565b811461048b57600080fd5b50565b60008151905061049d81610477565b92915050565b600073ffffffffffffffffffffffffffffffffffffffff82169050919050565b60006104ce826104a3565b9050919050565b6104de816104c3565b81146104e957600080fd5b50565b6000815190506104fb816104d5565b92915050565b6000806040838503121561051857610517610468565b5b60006105268582860161048e565b9250506020610537858286016104ec565b9150509250929050565b61054a816104c3565b82525050565b60006020820190506105656000830184610541565b92915050565b612a1c8061057a6000396000f3fe608060405234801561001057600080fd5b506004361061014d5760003560e01c80638da5cb5b116100c3578063e2842d791161007c578063e2842d79146103c4578063f011f2f4146103e2578063f2caeb1e14610412578063f2fde38b14610442578063fc0c546a1461045e578063ffcf4b581461047c5761014d565b80638da5cb5b146102da5780639eddc687146102f8578063a87430ba14610328578063be9a655514610358578063da8ce94814610376578063ddca3f43146103a65761014d565b8063669fb70511610115578063669fb7051461022e57806369fe0e2d1461024c578063715018a6146102685780637b0472f0146102725780638418e6791461028e5780638bdf67f2146102be5761014d565b806313ed0846146101525780632e17de78146101825780633462e0a8146101b2578063441a3e70146101ce578063502c9bd5146101fe575b600080fd5b61016c60048036038101906101679190611e8b565b61049a565b6040516101799190611eda565b60405180910390f35b61019c60048036038101906101979190611ef5565b6104bc565b6040516101a99190611eda565b60405180910390f35b6101cc60048036038101906101c79190611e8b565b610990565b005b6101e860048036038101906101e39190611e8b565b610a25565b6040516101f59190611f3d565b60405180910390f35b61021860048036038101906102139190611ef5565b610fa0565b6040516102259190611f99565b60405180910390f35b610236610fdf565b6040516102439190611eda565b60405180910390f35b61026660048036038101906102619190611ef5565b611095565b005b6102706110a7565b005b61028c60048036038101906102879190611e8b565b6110bb565b005b6102a860048036038101906102a39190611e8b565b61152c565b6040516102b59190611f3d565b60405180910390f35b6102d860048036038101906102d39190611ef5565b611545565b005b6102e26115f3565b6040516102ef9190611f99565b60405180910390f35b610312600480360381019061030d9190611ef5565b61161c565b60405161031f9190611eda565b60405180910390f35b610342600480360381019061033d9190611fe0565b611639565b60405161034f9190611f99565b60405180910390f35b610360611677565b60405161036d9190611eda565b60405180910390f35b610390600480360381019061038b9190611e8b565b61167d565b60405161039d9190611eda565b60405180910390f35b6103ae6116a2565b6040516103bb9190611eda565b60405180910390f35b6103cc6116a8565b6040516103d99190612254565b60405180910390f35b6103fc60048036038101906103f79190611e8b565b6118c3565b6040516104099190611eda565b60405180910390f35b61042c60048036038101906104279190611ef5565b6118f2565b6040516104399190611eda565b60405180910390f35b61045c60048036038101906104579190611fe0565b61190a565b005b610466611990565b60405161047391906122d5565b60405180910390f35b6104846119b6565b604051610491919061235f565b60405180910390f35b6000606482846104aa91906123b0565b6104b49190612421565b905092915050565b60006104c6611a91565b81601e8114806104d65750603c81145b806104e15750605a81145b806104ec5750607881145b806104f7575060b481145b610536576040517f08c379a000000000000000000000000000000000000000000000000000000000815260040161052d906124af565b60405180910390fd5b6000600860003373ffffffffffffffffffffffffffffffffffffffff1673ffffffffffffffffffffffffffffffffffffffff16815260200190815260200160002090506000806000805b84600101805490508110156107a35760008560010182815481106105a7576105a66124cf565b5b90600052602060002090600602019050888160040154146105c85750610796565b6105da8160030154826004015461152c565b1561061a576040517f08c379a00000000000000000000000000000000000000000000000000000000081526004016106119061254a565b60405180910390fd5b600061062e8260000154836005015461049a565b90506064600254828460000154610645919061256a565b61064f91906123b0565b6106599190612421565b94508481836000015461066c919061256a565b610676919061259e565b95506001876001018054905061068c919061259e565b83101561072e5786600101600188600101805490506106ab919061259e565b815481106106bc576106bb6124cf565b5b90600052602060002090600602018760010184815481106106e0576106df6124cf565b5b90600052602060002090600602016000820154816000015560018201548160010155600282015481600201556003820154816003015560048201548160040155600582015481600501559050505b86600101805480610742576107416125d2565b5b600190038181906000526020600020906006020160008082016000905560018201600090556002820160009055600382016000905560048201600090556005820160009055505090556001935050506107a3565b8080600101915050610580565b50806107e4576040517f08c379a00000000000000000000000000000000000000000000000000000000081526004016107db90612673565b60405180910390fd5b600460009054906101000a900473ffffffffffffffffffffffffffffffffffffffff1673ffffffffffffffffffffffffffffffffffffffff1663a9059cbb33856040518363ffffffff1660e01b8152600401610841929190612693565b6020604051808303816000875af1158015610860573d6000803e3d6000fd5b505050506040513d601f19601f8201168201806040525081019061088491906126e8565b50600460009054906101000a900473ffffffffffffffffffffffffffffffffffffffff1673ffffffffffffffffffffffffffffffffffffffff1663a9059cbb6108cb6115f3565b846040518363ffffffff1660e01b81526004016108e9929190612693565b6020604051808303816000875af1158015610908573d6000803e3d6000fd5b505050506040513d601f19601f8201168201806040525081019061092c91906126e8565b503373ffffffffffffffffffffffffffffffffffffffff167f0f5bb82176feb1b5e747e28471aa92156a04d9f3ab9f45f28e2d704232b93f75846040516109739190611eda565b60405180910390a2829550505050505061098b611ad7565b919050565b610998611ae0565b81601e8114806109a85750603c81145b806109b35750605a81145b806109be5750607881145b806109c9575060b481145b610a08576040517f08c379a00000000000000000000000000000000000000000000000000000000081526004016109ff906124af565b60405180910390fd5b816006600085815260200190815260200160002081905550505050565b6000610a2f611a91565b82601e811480610a3f5750603c81145b80610a4a5750605a81145b80610a555750607881145b80610a60575060b481145b610a9f576040517f08c379a0000000000000000000000000000000000000000000000000000000008152600401610a96906124af565b60405180910390fd5b6000600860003373ffffffffffffffffffffffffffffffffffffffff1673ffffffffffffffffffffffffffffffffffffffff1681526020019081526020016000209050600073ffffffffffffffffffffffffffffffffffffffff168160000160009054906101000a900473ffffffffffffffffffffffffffffffffffffffff1673ffffffffffffffffffffffffffffffffffffffff1603610b75576040517f08c379a0000000000000000000000000000000000000000000000000000000008152600401610b6c90612761565b60405180910390fd5b600080806000905060008060005b8660010180549050811015610da5576000876001018281548110610baa57610ba96124cf565b5b906000526020600020906006020190508b816004015414610bcb5750610d98565b60019350610be18160030154826004015461152c565b610c20576040517f08c379a0000000000000000000000000000000000000000000000000000000008152600401610c17906127cd565b60405180910390fd5b600660008d81526020019081526020016000205481600501541115610c9557610c518160000154826005015461049a565b9550858160000154610c63919061256a565b9650606460025488610c7591906123b0565b610c7f9190612421565b9450610c8b8883611b67565b6001925050610da5565b610ca78160000154826005015461049a565b9550600060648c6064610cba919061259e565b8360000154610cc991906123b0565b610cd39190612421565b90506000610ce18d8f6118c3565b9050606481610cf09190612421565b836005016000828254610d03919061256a565b9250508190555087836002016000828254610d1e919061256a565b925050819055508782610d31919061256a565b836001016000828254610d44919061256a565b9250508190555081836000016000828254610d5f919061259e565b925050819055508782610d72919061256a565b985060646002548a610d8491906123b0565b610d8e9190612421565b9650505050610da5565b8080600101915050610b83565b5081610de6576040517f08c379a0000000000000000000000000000000000000000000000000000000008152600401610ddd90612673565b60405180910390fd5b600460009054906101000a900473ffffffffffffffffffffffffffffffffffffffff1673ffffffffffffffffffffffffffffffffffffffff1663a9059cbb338588610e31919061259e565b6040518363ffffffff1660e01b8152600401610e4e929190612693565b6020604051808303816000875af1158015610e6d573d6000803e3d6000fd5b505050506040513d601f19601f82011682018060405250810190610e9191906126e8565b50600460009054906101000a900473ffffffffffffffffffffffffffffffffffffffff1673ffffffffffffffffffffffffffffffffffffffff1663a9059cbb610ed86115f3565b856040518363ffffffff1660e01b8152600401610ef6929190612693565b6020604051808303816000875af1158015610f15573d6000803e3d6000fd5b505050506040513d601f19601f82011682018060405250810190610f3991906126e8565b503373ffffffffffffffffffffffffffffffffffffffff167f884edad9ce6fa2440d8a54cc123490eb96d2768479d49ff9c7366125a942436486604051610f809190611eda565b60405180910390a280975050505050505050610f9a611ad7565b92915050565b60058181548110610fb057600080fd5b906000526020600020016000915054906101000a900473ffffffffffffffffffffffffffffffffffffffff1681565b600080600860003373ffffffffffffffffffffffffffffffffffffffff1673ffffffffffffffffffffffffffffffffffffffff168152602001908152602001600020905060005b816001018054905081101561109057600082600101828154811061104d5761104c6124cf565b5b9060005260206000209060060201905060006110718260000154836005015461049a565b9050808561107f919061256a565b945050508080600101915050611026565b505090565b61109d611ae0565b8060028190555050565b6110af611ae0565b6110b96000611cab565b565b6110c3611a91565b80601e8114806110d35750603c81145b806110de5750605a81145b806110e95750607881145b806110f4575060b481145b611133576040517f08c379a000000000000000000000000000000000000000000000000000000000815260040161112a906124af565b60405180910390fd5b60008311611176576040517f08c379a000000000000000000000000000000000000000000000000000000000815260040161116d90612839565b60405180910390fd5b6111803383611d6f565b156111c0576040517f08c379a00000000000000000000000000000000000000000000000000000000081526004016111b7906128cb565b60405180910390fd5b60006040518060c00160405280858152602001600081526020016000815260200142815260200184815260200160066000868152602001908152602001600020548152509050600073ffffffffffffffffffffffffffffffffffffffff16600860003373ffffffffffffffffffffffffffffffffffffffff1673ffffffffffffffffffffffffffffffffffffffff16815260200190815260200160002060000160009054906101000a900473ffffffffffffffffffffffffffffffffffffffff1673ffffffffffffffffffffffffffffffffffffffff16036113815733600860003373ffffffffffffffffffffffffffffffffffffffff1673ffffffffffffffffffffffffffffffffffffffff16815260200190815260200160002060000160006101000a81548173ffffffffffffffffffffffffffffffffffffffff021916908373ffffffffffffffffffffffffffffffffffffffff1602179055506005339080600181540180825580915050600190039060005260206000200160009091909190916101000a81548173ffffffffffffffffffffffffffffffffffffffff021916908373ffffffffffffffffffffffffffffffffffffffff1602179055505b600860003373ffffffffffffffffffffffffffffffffffffffff1673ffffffffffffffffffffffffffffffffffffffff168152602001908152602001600020600101819080600181540180825580915050600190039060005260206000209060060201600090919091909150600082015181600001556020820151816001015560408201518160020155606082015181600301556080820151816004015560a082015181600501555050600460009054906101000a900473ffffffffffffffffffffffffffffffffffffffff1673ffffffffffffffffffffffffffffffffffffffff166323b872dd3330876040518463ffffffff1660e01b815260040161148a939291906128eb565b6020604051808303816000875af11580156114a9573d6000803e3d6000fd5b505050506040513d601f19601f820116820180604052508101906114cd91906126e8565b503373ffffffffffffffffffffffffffffffffffffffff167f1449c6dd7851abc30abf37f57715f492010519147cc2652fbc38202c18a6ee908585604051611516929190612922565b60405180910390a25050611528611ad7565b5050565b6000818361153a919061256a565b421015905092915050565b61154d611ae0565b600460009054906101000a900473ffffffffffffffffffffffffffffffffffffffff1673ffffffffffffffffffffffffffffffffffffffff166323b872dd3330846040518463ffffffff1660e01b81526004016115ac939291906128eb565b6020604051808303816000875af11580156115cb573d6000803e3d6000fd5b505050506040513d601f19601f820116820180604052508101906115ef91906126e8565b5050565b60008060009054906101000a900473ffffffffffffffffffffffffffffffffffffffff16905090565b600060066000838152602001908152602001600020549050919050565b60086020528060005260406000206000915090508060000160009054906101000a900473ffffffffffffffffffffffffffffffffffffffff16905081565b60035481565b6007602052816000526040600020602052806000526040600020600091509150505481565b60025481565b6060600060058054905067ffffffffffffffff8111156116cb576116ca61294b565b5b60405190808252806020026020018201604052801561170457816020015b6116f1611e20565b8152602001906001900390816116e95790505b50905060005b6005805490508110156118bb57600860006005838154811061172f5761172e6124cf565b5b9060005260206000200160009054906101000a900473ffffffffffffffffffffffffffffffffffffffff1673ffffffffffffffffffffffffffffffffffffffff1673ffffffffffffffffffffffffffffffffffffffff1681526020019081526020016000206040518060400160405290816000820160009054906101000a900473ffffffffffffffffffffffffffffffffffffffff1673ffffffffffffffffffffffffffffffffffffffff1673ffffffffffffffffffffffffffffffffffffffff16815260200160018201805480602002602001604051908101604052809291908181526020016000905b8282101561188857838290600052602060002090600602016040518060c001604052908160008201548152602001600182015481526020016002820154815260200160038201548152602001600482015481526020016005820154815250508152602001906001019061181a565b50505050815250508282815181106118a3576118a26124cf565b5b6020026020010181905250808060010191505061170a565b508091505090565b600060076000838152602001908152602001600020600084815260200190815260200160002054905092915050565b60066020528060005260406000206000915090505481565b611912611ae0565b600073ffffffffffffffffffffffffffffffffffffffff168173ffffffffffffffffffffffffffffffffffffffff16036119845760006040517f1e4fbdf700000000000000000000000000000000000000000000000000000000815260040161197b9190611f99565b60405180910390fd5b61198d81611cab565b50565b600460009054906101000a900473ffffffffffffffffffffffffffffffffffffffff1681565b6060600860003373ffffffffffffffffffffffffffffffffffffffff1673ffffffffffffffffffffffffffffffffffffffff168152602001908152602001600020600101805480602002602001604051908101604052809291908181526020016000905b82821015611a8857838290600052602060002090600602016040518060c0016040529081600082015481526020016001820154815260200160028201548152602001600382015481526020016004820154815260200160058201548152505081526020019060010190611a1a565b50505050905090565b600260015403611acd576040517f3ee5aeb500000000000000000000000000000000000000000000000000000000815260040160405180910390fd5b6002600181905550565b60018081905550565b611ae8611e18565b73ffffffffffffffffffffffffffffffffffffffff16611b066115f3565b73ffffffffffffffffffffffffffffffffffffffff1614611b6557611b29611e18565b6040517f118cdaa7000000000000000000000000000000000000000000000000000000008152600401611b5c9190611f99565b60405180910390fd5b565b81600101805490508110611bb0576040517f08c379a0000000000000000000000000000000000000000000000000000000008152600401611ba7906129c6565b60405180910390fd5b8160010160018360010180549050611bc8919061259e565b81548110611bd957611bd86124cf565b5b9060005260206000209060060201826001018281548110611bfd57611bfc6124cf565b5b906000526020600020906006020160008201548160000155600182015481600101556002820154816002015560038201548160030155600482015481600401556005820154816005015590505081600101805480611c5e57611c5d6125d2565b5b600190038181906000526020600020906006020160008082016000905560018201600090556002820160009055600382016000905560048201600090556005820160009055505090555050565b60008060009054906101000a900473ffffffffffffffffffffffffffffffffffffffff169050816000806101000a81548173ffffffffffffffffffffffffffffffffffffffff021916908373ffffffffffffffffffffffffffffffffffffffff1602179055508173ffffffffffffffffffffffffffffffffffffffff168173ffffffffffffffffffffffffffffffffffffffff167f8be0079c531659141344cd1fd0a4f28419497f9722a3daafe3b4186f6b6457e060405160405180910390a35050565b600080600860008573ffffffffffffffffffffffffffffffffffffffff1673ffffffffffffffffffffffffffffffffffffffff168152602001908152602001600020905060005b8160010180549050811015611e0b5783826001018281548110611ddc57611ddb6124cf565b5b90600052602060002090600602016004015403611dfe57600192505050611e12565b8080600101915050611db6565b5060009150505b92915050565b600033905090565b6040518060400160405280600073ffffffffffffffffffffffffffffffffffffffff168152602001606081525090565b600080fd5b6000819050919050565b611e6881611e55565b8114611e7357600080fd5b50565b600081359050611e8581611e5f565b92915050565b60008060408385031215611ea257611ea1611e50565b5b6000611eb085828601611e76565b9250506020611ec185828601611e76565b9150509250929050565b611ed481611e55565b82525050565b6000602082019050611eef6000830184611ecb565b92915050565b600060208284031215611f0b57611f0a611e50565b5b6000611f1984828501611e76565b91505092915050565b60008115159050919050565b611f3781611f22565b82525050565b6000602082019050611f526000830184611f2e565b92915050565b600073ffffffffffffffffffffffffffffffffffffffff82169050919050565b6000611f8382611f58565b9050919050565b611f9381611f78565b82525050565b6000602082019050611fae6000830184611f8a565b92915050565b611fbd81611f78565b8114611fc857600080fd5b50565b600081359050611fda81611fb4565b92915050565b600060208284031215611ff657611ff5611e50565b5b600061200484828501611fcb565b91505092915050565b600081519050919050565b600082825260208201905092915050565b6000819050602082019050919050565b61204281611f78565b82525050565b600081519050919050565b600082825260208201905092915050565b6000819050602082019050919050565b61207d81611e55565b82525050565b60c0820160008201516120996000850182612074565b5060208201516120ac6020850182612074565b5060408201516120bf6040850182612074565b5060608201516120d26060850182612074565b5060808201516120e56080850182612074565b5060a08201516120f860a0850182612074565b50505050565b600061210a8383612083565b60c08301905092915050565b6000602082019050919050565b600061212e82612048565b6121388185612053565b935061214383612064565b8060005b8381101561217457815161215b88826120fe565b975061216683612116565b925050600181019050612147565b5085935050505092915050565b60006040830160008301516121996000860182612039565b50602083015184820360208601526121b18282612123565b9150508091505092915050565b60006121ca8383612181565b905092915050565b6000602082019050919050565b60006121ea8261200d565b6121f48185612018565b93508360208202850161220685612029565b8060005b85811015612242578484038952815161222385826121be565b945061222e836121d2565b925060208a0199505060018101905061220a565b50829750879550505050505092915050565b6000602082019050818103600083015261226e81846121df565b905092915050565b6000819050919050565b600061229b61229661229184611f58565b612276565b611f58565b9050919050565b60006122ad82612280565b9050919050565b60006122bf826122a2565b9050919050565b6122cf816122b4565b82525050565b60006020820190506122ea60008301846122c6565b92915050565b600082825260208201905092915050565b600061230c82612048565b61231681856122f0565b935061232183612064565b8060005b8381101561235257815161233988826120fe565b975061234483612116565b925050600181019050612325565b5085935050505092915050565b600060208201905081810360008301526123798184612301565b905092915050565b7f4e487b7100000000000000000000000000000000000000000000000000000000600052601160045260246000fd5b60006123bb82611e55565b91506123c683611e55565b92508282026123d481611e55565b915082820484148315176123eb576123ea612381565b5b5092915050565b7f4e487b7100000000000000000000000000000000000000000000000000000000600052601260045260246000fd5b600061242c82611e55565b915061243783611e55565b925082612447576124466123f2565b5b828204905092915050565b600082825260208201905092915050565b7f496e76616c6964206c6f636b20706572696f6400000000000000000000000000600082015250565b6000612499601383612452565b91506124a482612463565b602082019050919050565b600060208201905081810360008301526124c88161248c565b9050919050565b7f4e487b7100000000000000000000000000000000000000000000000000000000600052603260045260246000fd5b7f596f752063616e277420756e7374616b65207965740000000000000000000000600082015250565b6000612534601583612452565b915061253f826124fe565b602082019050919050565b6000602082019050818103600083015261256381612527565b9050919050565b600061257582611e55565b915061258083611e55565b925082820190508082111561259857612597612381565b5b92915050565b60006125a982611e55565b91506125b483611e55565b92508282039050818111156125cc576125cb612381565b5b92915050565b7f4e487b7100000000000000000000000000000000000000000000000000000000600052603160045260246000fd5b7f4e6f207374616b6520666f756e6420666f722074686973206c6f636b2070657260008201527f696f640000000000000000000000000000000000000000000000000000000000602082015250565b600061265d602383612452565b915061266882612601565b604082019050919050565b6000602082019050818103600083015261268c81612650565b9050919050565b60006040820190506126a86000830185611f8a565b6126b56020830184611ecb565b9392505050565b6126c581611f22565b81146126d057600080fd5b50565b6000815190506126e2816126bc565b92915050565b6000602082840312156126fe576126fd611e50565b5b600061270c848285016126d3565b91505092915050565b7f55736572206e6f7420666f756e64000000000000000000000000000000000000600082015250565b600061274b600e83612452565b915061275682612715565b602082019050919050565b6000602082019050818103600083015261277a8161273e565b9050919050565b7f596f752063616e27742077697468647261772079657400000000000000000000600082015250565b60006127b7601683612452565b91506127c282612781565b602082019050919050565b600060208201905081810360008301526127e6816127aa565b9050919050565b7f416d6f756e74206d7573742062652067726561746572207468616e2030000000600082015250565b6000612823601d83612452565b915061282e826127ed565b602082019050919050565b6000602082019050818103600083015261285281612816565b9050919050565b7f416c7265616479207374616b656420666f722074686973206c6f636b2070657260008201527f696f640000000000000000000000000000000000000000000000000000000000602082015250565b60006128b5602383612452565b91506128c082612859565b604082019050919050565b600060208201905081810360008301526128e4816128a8565b9050919050565b60006060820190506129006000830186611f8a565b61290d6020830185611f8a565b61291a6040830184611ecb565b949350505050565b60006040820190506129376000830185611ecb565b6129446020830184611ecb565b9392505050565b7f4e487b7100000000000000000000000000000000000000000000000000000000600052604160045260246000fd5b7f496e76616c696420696e64657800000000000000000000000000000000000000600082015250565b60006129b0600d83612452565b91506129bb8261297a565b602082019050919050565b600060208201905081810360008301526129df816129a3565b905091905056fea26469706673582212205e7d50929932c53c42ad37417c8ba2668aeaf784a8caa43a3959d8372298ec6164736f6c634300081b0033",
  "linkReferences": {},
  "deployedLinkReferences": {}
}