{
  "_format": "hh-sol-artifact-1",
  "contractName": "Staking",
  "sourceName": "contracts/Staking.sol",
  "abi": [
    {
      "inputs": [
        {
          "internalType": "uint256",
          "name": "_start",
          "type": "uint256"
        },
        {
          "internalType": "address",
          "name": "tokenAddress",
          "type": "address"
        }
      ],
      "stateMutability": "nonpayable",
      "type": "constructor"
    },
    {
      "inputs": [
        {
          "internalType": "address",
          "name": "owner",
          "type": "address"
        }
      ],
      "name": "OwnableInvalidOwner",
      "type": "error"
    },
    {
      "inputs": [
        {
          "internalType": "address",
          "name": "account",
          "type": "address"
        }
      ],
      "name": "OwnableUnauthorizedAccount",
      "type": "error"
    },
    {
      "inputs": [],
      "name": "ReentrancyGuardReentrantCall",
      "type": "error"
    },
    {
      "anonymous": false,
      "inputs": [
        {
          "indexed": false,
          "internalType": "string",
          "name": "key",
          "type": "string"
        },
        {
          "indexed": false,
          "internalType": "uint256",
          "name": "value",
          "type": "uint256"
        },
        {
          "indexed": false,
          "internalType": "string",
          "name": "newKey",
          "type": "string"
        },
        {
          "indexed": false,
          "internalType": "uint256",
          "name": "newValue",
          "type": "uint256"
        }
      ],
      "name": "LogTokenBalance",
      "type": "event"
    },
    {
      "anonymous": false,
      "inputs": [
        {
          "indexed": true,
          "internalType": "address",
          "name": "previousOwner",
          "type": "address"
        },
        {
          "indexed": true,
          "internalType": "address",
          "name": "newOwner",
          "type": "address"
        }
      ],
      "name": "OwnershipTransferred",
      "type": "event"
    },
    {
      "anonymous": false,
      "inputs": [
        {
          "indexed": true,
          "internalType": "address",
          "name": "user",
          "type": "address"
        },
        {
          "indexed": false,
          "internalType": "uint256",
          "name": "amount",
          "type": "uint256"
        }
      ],
      "name": "Staked",
      "type": "event"
    },
    {
      "anonymous": false,
      "inputs": [
        {
          "indexed": true,
          "internalType": "address",
          "name": "user",
          "type": "address"
        },
        {
          "indexed": false,
          "internalType": "uint256",
          "name": "amount",
          "type": "uint256"
        }
      ],
      "name": "Unstaked",
      "type": "event"
    },
    {
      "anonymous": false,
      "inputs": [
        {
          "indexed": true,
          "internalType": "address",
          "name": "user",
          "type": "address"
        },
        {
          "indexed": false,
          "internalType": "uint256",
          "name": "amount",
          "type": "uint256"
        }
      ],
      "name": "Withdraw",
      "type": "event"
    },
    {
      "inputs": [
        {
          "internalType": "uint256",
          "name": "amount",
          "type": "uint256"
        },
        {
          "internalType": "uint256",
          "name": "rate",
          "type": "uint256"
        }
      ],
      "name": "calculateReward",
      "outputs": [
        {
          "internalType": "uint256",
          "name": "",
          "type": "uint256"
        }
      ],
      "stateMutability": "pure",
      "type": "function"
    },
    {
      "inputs": [
        {
          "internalType": "uint256",
          "name": "amount",
          "type": "uint256"
        }
      ],
      "name": "depositRewards",
      "outputs": [],
      "stateMutability": "nonpayable",
      "type": "function"
    },
    {
      "inputs": [
        {
          "internalType": "uint256",
          "name": "",
          "type": "uint256"
        },
        {
          "internalType": "uint256",
          "name": "",
          "type": "uint256"
        }
      ],
      "name": "extraRewardRates",
      "outputs": [
        {
          "internalType": "uint256",
          "name": "",
          "type": "uint256"
        }
      ],
      "stateMutability": "view",
      "type": "function"
    },
    {
      "inputs": [],
      "name": "fee",
      "outputs": [
        {
          "internalType": "uint256",
          "name": "",
          "type": "uint256"
        }
      ],
      "stateMutability": "view",
      "type": "function"
    },
    {
      "inputs": [
        {
          "internalType": "uint256",
          "name": "leftPercent",
          "type": "uint256"
        },
        {
          "internalType": "uint256",
          "name": "lockPeriod",
          "type": "uint256"
        }
      ],
      "name": "getExtraRewardRateForExtendAPY",
      "outputs": [
        {
          "internalType": "uint256",
          "name": "",
          "type": "uint256"
        }
      ],
      "stateMutability": "view",
      "type": "function"
    },
    {
      "inputs": [],
      "name": "getMyStakedHistory",
      "outputs": [
        {
          "components": [
            {
              "internalType": "uint256",
              "name": "stakedAmount",
              "type": "uint256"
            },
            {
              "internalType": "uint256",
              "name": "withdrawAmount",
              "type": "uint256"
            },
            {
              "internalType": "uint256",
              "name": "rewardAmount",
              "type": "uint256"
            },
            {
              "internalType": "uint256",
              "name": "start",
              "type": "uint256"
            },
            {
              "internalType": "uint256",
              "name": "apy",
              "type": "uint256"
            },
            {
              "internalType": "uint256",
              "name": "rewardRate",
              "type": "uint256"
            }
          ],
          "internalType": "struct Staking.StakedData[]",
          "name": "",
          "type": "tuple[]"
        }
      ],
      "stateMutability": "view",
      "type": "function"
    },
    {
      "inputs": [
        {
          "internalType": "uint256",
          "name": "_start",
          "type": "uint256"
        },
        {
          "internalType": "uint256",
          "name": "lockPeriod",
          "type": "uint256"
        }
      ],
      "name": "hasLockPeriodPassed",
      "outputs": [
        {
          "internalType": "bool",
          "name": "",
          "type": "bool"
        }
      ],
      "stateMutability": "view",
      "type": "function"
    },
    {
      "inputs": [
        {
          "internalType": "uint256",
          "name": "rate",
          "type": "uint256"
        }
      ],
      "name": "isScaledRate",
      "outputs": [
        {
          "internalType": "bool",
          "name": "",
          "type": "bool"
        }
      ],
      "stateMutability": "pure",
      "type": "function"
    },
    {
      "inputs": [],
      "name": "owner",
      "outputs": [
        {
          "internalType": "address",
          "name": "",
          "type": "address"
        }
      ],
      "stateMutability": "view",
      "type": "function"
    },
    {
      "inputs": [],
      "name": "renounceOwnership",
      "outputs": [],
      "stateMutability": "nonpayable",
      "type": "function"
    },
    {
      "inputs": [
        {
          "internalType": "uint256",
          "name": "",
          "type": "uint256"
        }
      ],
      "name": "rewardRates",
      "outputs": [
        {
          "internalType": "uint256",
          "name": "",
          "type": "uint256"
        }
      ],
      "stateMutability": "view",
      "type": "function"
    },
    {
      "inputs": [
        {
          "internalType": "uint256",
          "name": "_fee",
          "type": "uint256"
        }
      ],
      "name": "setFee",
      "outputs": [],
      "stateMutability": "nonpayable",
      "type": "function"
    },
    {
      "inputs": [
        {
          "internalType": "uint256",
          "name": "lockPeriod",
          "type": "uint256"
        },
        {
          "internalType": "uint256",
          "name": "rate",
          "type": "uint256"
        }
      ],
      "name": "setRewardRate",
      "outputs": [],
      "stateMutability": "nonpayable",
      "type": "function"
    },
    {
      "inputs": [
        {
          "internalType": "uint256",
          "name": "amount",
          "type": "uint256"
        },
        {
          "internalType": "uint256",
          "name": "lockPeriod",
          "type": "uint256"
        }
      ],
      "name": "stake",
      "outputs": [],
      "stateMutability": "nonpayable",
      "type": "function"
    },
    {
      "inputs": [],
      "name": "start",
      "outputs": [
        {
          "internalType": "uint256",
          "name": "",
          "type": "uint256"
        }
      ],
      "stateMutability": "view",
      "type": "function"
    },
    {
      "inputs": [],
      "name": "token",
      "outputs": [
        {
          "internalType": "contract TokenA",
          "name": "",
          "type": "address"
        }
      ],
      "stateMutability": "view",
      "type": "function"
    },
    {
      "inputs": [
        {
          "internalType": "address",
          "name": "newOwner",
          "type": "address"
        }
      ],
      "name": "transferOwnership",
      "outputs": [],
      "stateMutability": "nonpayable",
      "type": "function"
    },
    {
      "inputs": [
        {
          "internalType": "uint256",
          "name": "lockPeriod",
          "type": "uint256"
        }
      ],
      "name": "unstake",
      "outputs": [
        {
          "internalType": "uint256",
          "name": "",
          "type": "uint256"
        }
      ],
      "stateMutability": "nonpayable",
      "type": "function"
    },
    {
      "inputs": [
        {
          "internalType": "uint256",
          "name": "",
          "type": "uint256"
        }
      ],
      "name": "userAddresses",
      "outputs": [
        {
          "internalType": "address",
          "name": "",
          "type": "address"
        }
      ],
      "stateMutability": "view",
      "type": "function"
    },
    {
      "inputs": [
        {
          "internalType": "address",
          "name": "",
          "type": "address"
        }
      ],
      "name": "users",
      "outputs": [
        {
          "internalType": "address",
          "name": "account",
          "type": "address"
        }
      ],
      "stateMutability": "view",
      "type": "function"
    },
    {
      "inputs": [
        {
          "internalType": "uint256",
          "name": "lockPeriod",
          "type": "uint256"
        },
        {
          "internalType": "uint256",
          "name": "leftStakePercent",
          "type": "uint256"
        }
      ],
      "name": "withdraw",
      "outputs": [],
      "stateMutability": "nonpayable",
      "type": "function"
    }
  ],
  "bytecode": "0x6080604052600160025534801561001557600080fd5b50604051612bc6380380612bc68339818101604052810190610037919061052f565b33600073ffffffffffffffffffffffffffffffffffffffff168173ffffffffffffffffffffffffffffffffffffffff16036100aa5760006040517f1e4fbdf70000000000000000000000000000000000000000000000000000000081526004016100a1919061057e565b60405180910390fd5b6100b9816103d260201b60201c565b50600180819055508160038190555080600460006101000a81548173ffffffffffffffffffffffffffffffffffffffff021916908373ffffffffffffffffffffffffffffffffffffffff1602179055506113886006600062278d00815260200190815260200160002081905550611f4060066000624f1a00815260200190815260200160002081905550612710600660006276a700815260200190815260200160002081905550612ee060066000629e3400815260200190815260200160002081905550613a986006600062ed4e008152602001908152602001600020819055506101f46007600062278d0081526020019081526020016000206000606481526020019081526020016000208190555060fa6007600062278d00815260200190815260200160002060006032815260200190815260200160002081905550607d6007600062278d008152602001908152602001600020600060198152602001908152602001600020819055506103e860076000624f1a008152602001908152602001600020600060648152602001908152602001600020819055506101f460076000624f1a0081526020019081526020016000206000603281526020019081526020016000208190555060fa60076000624f1a008152602001908152602001600020600060198152602001908152602001600020819055506107d0600760006276a7008152602001908152602001600020600060648152602001908152602001600020819055506103e8600760006276a700815260200190815260200160002060006032815260200190815260200160002081905550610bb860076000629e34008152602001908152602001600020600060648152602001908152602001600020819055506105dc60076000629e3400815260200190815260200160002060006032815260200190815260200160002081905550610fa06007600062ed4e008152602001908152602001600020600060648152602001908152602001600020819055506107d06007600062ed4e008152602001908152602001600020600060328152602001908152602001600020819055505050610599565b60008060009054906101000a900473ffffffffffffffffffffffffffffffffffffffff169050816000806101000a81548173ffffffffffffffffffffffffffffffffffffffff021916908373ffffffffffffffffffffffffffffffffffffffff1602179055508173ffffffffffffffffffffffffffffffffffffffff168173ffffffffffffffffffffffffffffffffffffffff167f8be0079c531659141344cd1fd0a4f28419497f9722a3daafe3b4186f6b6457e060405160405180910390a35050565b600080fd5b6000819050919050565b6104ae8161049b565b81146104b957600080fd5b50565b6000815190506104cb816104a5565b92915050565b600073ffffffffffffffffffffffffffffffffffffffff82169050919050565b60006104fc826104d1565b9050919050565b61050c816104f1565b811461051757600080fd5b50565b60008151905061052981610503565b92915050565b6000806040838503121561054657610545610496565b5b6000610554858286016104bc565b92505060206105658582860161051a565b9150509250929050565b610578816104f1565b82525050565b6000602082019050610593600083018461056f565b92915050565b61261e806105a86000396000f3fe608060405234801561001057600080fd5b50600436106101375760003560e01c80638bdf67f2116100b8578063ddca3f431161007c578063ddca3f431461035e578063f011f2f41461037c578063f2caeb1e146103ac578063f2fde38b146103dc578063fc0c546a146103f8578063ffcf4b581461041657610137565b80638bdf67f2146102a65780638da5cb5b146102c2578063a87430ba146102e0578063be9a655514610310578063da8ce9481461032e57610137565b8063502c9bd5116100ff578063502c9bd51461020457806369fe0e2d14610234578063715018a6146102505780637b0472f01461025a5780638418e6791461027657610137565b806313ed08461461013c5780632e17de781461016c5780633462e0a81461019c578063441a3e70146101b857806348ef8e70146101d4575b600080fd5b61015660048036038101906101519190611b64565b610434565b6040516101639190611bb3565b60405180910390f35b61018660048036038101906101819190611bce565b610458565b6040516101939190611bb3565b60405180910390f35b6101b660048036038101906101b19190611b64565b610909565b005b6101d260048036038101906101cd9190611b64565b6109a8565b005b6101ee60048036038101906101e99190611bce565b610f82565b6040516101fb9190611c16565b60405180910390f35b61021e60048036038101906102199190611bce565b610f8f565b60405161022b9190611c72565b60405180910390f35b61024e60048036038101906102499190611bce565b610fce565b005b610258610fe0565b005b610274600480360381019061026f9190611b64565b610ff4565b005b610290600480360381019061028b9190611b64565b61146d565b60405161029d9190611c16565b60405180910390f35b6102c060048036038101906102bb9190611bce565b611486565b005b6102ca611534565b6040516102d79190611c72565b60405180910390f35b6102fa60048036038101906102f59190611cb9565b61155d565b6040516103079190611c72565b60405180910390f35b61031861159b565b6040516103259190611bb3565b60405180910390f35b61034860048036038101906103439190611b64565b6115a1565b6040516103559190611bb3565b60405180910390f35b6103666115c6565b6040516103739190611bb3565b60405180910390f35b61039660048036038101906103919190611b64565b6115cc565b6040516103a39190611bb3565b60405180910390f35b6103c660048036038101906103c19190611bce565b6115fb565b6040516103d39190611bb3565b60405180910390f35b6103f660048036038101906103f19190611cb9565b611613565b005b610400611699565b60405161040d9190611d45565b60405180910390f35b61041e6116bf565b60405161042b9190611e99565b60405180910390f35b6000620186a082846104469190611eea565b6104509190611f5b565b905092915050565b600061046261179a565b8162278d008114806104765750624f1a0081145b8061048357506276a70081145b806104905750629e340081145b8061049d575062ed4e0081145b6104dc576040517f08c379a00000000000000000000000000000000000000000000000000000000081526004016104d390611fe9565b60405180910390fd5b6000600860003373ffffffffffffffffffffffffffffffffffffffff1673ffffffffffffffffffffffffffffffffffffffff16815260200190815260200160002090506000806000805b846001018054905081101561071157600085600101828154811061054d5761054c612009565b5b906000526020600020906006020190508881600401541461056e5750610704565b6105808160030154826004015461146d565b6105bf576040517f08c379a00000000000000000000000000000000000000000000000000000000081526004016105b690612084565b60405180910390fd5b60006105d382600001548360050154610434565b905060646002548284600001546105ea91906120a4565b6105f49190611eea565b6105fe9190611f5b565b945080826000015461061091906120a4565b955085600460009054906101000a900473ffffffffffffffffffffffffffffffffffffffff1673ffffffffffffffffffffffffffffffffffffffff166370a08231306040518263ffffffff1660e01b815260040161066e9190611c72565b602060405180830381865afa15801561068b573d6000803e3d6000fd5b505050506040513d601f19601f820116820180604052508101906106af91906120ed565b116106ef576040517f08c379a00000000000000000000000000000000000000000000000000000000081526004016106e6906121d8565b60405180910390fd5b6106f987846117e0565b600193505050610711565b8080600101915050610526565b5080610752576040517f08c379a00000000000000000000000000000000000000000000000000000000081526004016107499061226a565b60405180910390fd5b600460009054906101000a900473ffffffffffffffffffffffffffffffffffffffff1673ffffffffffffffffffffffffffffffffffffffff1663a9059cbb33848661079d919061228a565b6040518363ffffffff1660e01b81526004016107ba9291906122be565b6020604051808303816000875af11580156107d9573d6000803e3d6000fd5b505050506040513d601f19601f820116820180604052508101906107fd9190612313565b50600460009054906101000a900473ffffffffffffffffffffffffffffffffffffffff1673ffffffffffffffffffffffffffffffffffffffff1663a9059cbb610844611534565b846040518363ffffffff1660e01b81526004016108629291906122be565b6020604051808303816000875af1158015610881573d6000803e3d6000fd5b505050506040513d601f19601f820116820180604052508101906108a59190612313565b503373ffffffffffffffffffffffffffffffffffffffff167f0f5bb82176feb1b5e747e28471aa92156a04d9f3ab9f45f28e2d704232b93f75846040516108ec9190611bb3565b60405180910390a28295505050505050610904611924565b919050565b61091161192d565b8162278d008114806109255750624f1a0081145b8061093257506276a70081145b8061093f5750629e340081145b8061094c575062ed4e0081145b61098b576040517f08c379a000000000000000000000000000000000000000000000000000000000815260040161098290611fe9565b60405180910390fd5b816006600085815260200190815260200160002081905550505050565b6109b061179a565b8162278d008114806109c45750624f1a0081145b806109d157506276a70081145b806109de5750629e340081145b806109eb575062ed4e0081145b610a2a576040517f08c379a0000000000000000000000000000000000000000000000000000000008152600401610a2190611fe9565b60405180910390fd5b6000600860003373ffffffffffffffffffffffffffffffffffffffff1673ffffffffffffffffffffffffffffffffffffffff1681526020019081526020016000209050600073ffffffffffffffffffffffffffffffffffffffff168160000160009054906101000a900473ffffffffffffffffffffffffffffffffffffffff1673ffffffffffffffffffffffffffffffffffffffff1603610b00576040517f08c379a0000000000000000000000000000000000000000000000000000000008152600401610af79061238c565b60405180910390fd5b60008080600090506000805b8560010180549050811015610d8d576000866001018281548110610b3357610b32612009565b5b9060005260206000209060060201905089816004015414610b545750610d80565b60019250610b6a8160030154826004015461146d565b610ba9576040517f08c379a0000000000000000000000000000000000000000000000000000000008152600401610ba0906123f8565b60405180910390fd5b610bbb81600001548260050154610434565b9450600060648a6064610bce919061228a565b8360000154610bdd9190611eea565b610be79190611f5b565b90508581610bf591906120a4565b965086600460009054906101000a900473ffffffffffffffffffffffffffffffffffffffff1673ffffffffffffffffffffffffffffffffffffffff166370a08231306040518263ffffffff1660e01b8152600401610c539190611c72565b602060405180830381865afa158015610c70573d6000803e3d6000fd5b505050506040513d601f19601f82011682018060405250810190610c9491906120ed565b11610cd4576040517f08c379a0000000000000000000000000000000000000000000000000000000008152600401610ccb906121d8565b60405180910390fd5b610cde8a8c6115cc565b826005016000828254610cf191906120a4565b9250508190555085826002016000828254610d0c91906120a4565b925050819055508581610d1f91906120a4565b826001016000828254610d3291906120a4565b9250508190555080826000016000828254610d4d919061228a565b92505081905550428260030181905550606460025488610d6d9190611eea565b610d779190611f5b565b94505050610d8d565b8080600101915050610b0c565b5080610dce576040517f08c379a0000000000000000000000000000000000000000000000000000000008152600401610dc59061226a565b60405180910390fd5b600460009054906101000a900473ffffffffffffffffffffffffffffffffffffffff1673ffffffffffffffffffffffffffffffffffffffff1663a9059cbb338487610e19919061228a565b6040518363ffffffff1660e01b8152600401610e369291906122be565b6020604051808303816000875af1158015610e55573d6000803e3d6000fd5b505050506040513d601f19601f82011682018060405250810190610e799190612313565b50600460009054906101000a900473ffffffffffffffffffffffffffffffffffffffff1673ffffffffffffffffffffffffffffffffffffffff1663a9059cbb610ec0611534565b846040518363ffffffff1660e01b8152600401610ede9291906122be565b6020604051808303816000875af1158015610efd573d6000803e3d6000fd5b505050506040513d601f19601f82011682018060405250810190610f219190612313565b503373ffffffffffffffffffffffffffffffffffffffff167f884edad9ce6fa2440d8a54cc123490eb96d2768479d49ff9c7366125a942436485604051610f689190611bb3565b60405180910390a2505050505050610f7e611924565b5050565b6000606482119050919050565b60058181548110610f9f57600080fd5b906000526020600020016000915054906101000a900473ffffffffffffffffffffffffffffffffffffffff1681565b610fd661192d565b8060028190555050565b610fe861192d565b610ff260006119b4565b565b610ffc61179a565b8062278d008114806110105750624f1a0081145b8061101d57506276a70081145b8061102a5750629e340081145b80611037575062ed4e0081145b611076576040517f08c379a000000000000000000000000000000000000000000000000000000000815260040161106d90611fe9565b60405180910390fd5b600083116110b9576040517f08c379a00000000000000000000000000000000000000000000000000000000081526004016110b090612464565b60405180910390fd5b6110c33383611a78565b15611103576040517f08c379a00000000000000000000000000000000000000000000000000000000081526004016110fa906124f6565b60405180910390fd5b60006040518060c00160405280858152602001600081526020016000815260200142815260200184815260200160066000868152602001908152602001600020548152509050600073ffffffffffffffffffffffffffffffffffffffff16600860003373ffffffffffffffffffffffffffffffffffffffff1673ffffffffffffffffffffffffffffffffffffffff16815260200190815260200160002060000160009054906101000a900473ffffffffffffffffffffffffffffffffffffffff1673ffffffffffffffffffffffffffffffffffffffff16036112c45733600860003373ffffffffffffffffffffffffffffffffffffffff1673ffffffffffffffffffffffffffffffffffffffff16815260200190815260200160002060000160006101000a81548173ffffffffffffffffffffffffffffffffffffffff021916908373ffffffffffffffffffffffffffffffffffffffff1602179055506005339080600181540180825580915050600190039060005260206000200160009091909190916101000a81548173ffffffffffffffffffffffffffffffffffffffff021916908373ffffffffffffffffffffffffffffffffffffffff1602179055505b600860003373ffffffffffffffffffffffffffffffffffffffff1673ffffffffffffffffffffffffffffffffffffffff168152602001908152602001600020600101819080600181540180825580915050600190039060005260206000209060060201600090919091909150600082015181600001556020820151816001015560408201518160020155606082015181600301556080820151816004015560a082015181600501555050600460009054906101000a900473ffffffffffffffffffffffffffffffffffffffff1673ffffffffffffffffffffffffffffffffffffffff166323b872dd3330876040518463ffffffff1660e01b81526004016113cd93929190612516565b6020604051808303816000875af11580156113ec573d6000803e3d6000fd5b505050506040513d601f19601f820116820180604052508101906114109190612313565b503373ffffffffffffffffffffffffffffffffffffffff167f9e71bc8eea02a63969f509818f2dafb9254532904319f9dbda79b67bd34a5f3d856040516114579190611bb3565b60405180910390a25050611469611924565b5050565b6000818361147b91906120a4565b421015905092915050565b61148e61192d565b600460009054906101000a900473ffffffffffffffffffffffffffffffffffffffff1673ffffffffffffffffffffffffffffffffffffffff166323b872dd3330846040518463ffffffff1660e01b81526004016114ed93929190612516565b6020604051808303816000875af115801561150c573d6000803e3d6000fd5b505050506040513d601f19601f820116820180604052508101906115309190612313565b5050565b60008060009054906101000a900473ffffffffffffffffffffffffffffffffffffffff16905090565b60086020528060005260406000206000915090508060000160009054906101000a900473ffffffffffffffffffffffffffffffffffffffff16905081565b60035481565b6007602052816000526040600020602052806000526040600020600091509150505481565b60025481565b600060076000838152602001908152602001600020600084815260200190815260200160002054905092915050565b60066020528060005260406000206000915090505481565b61161b61192d565b600073ffffffffffffffffffffffffffffffffffffffff168173ffffffffffffffffffffffffffffffffffffffff160361168d5760006040517f1e4fbdf70000000000000000000000000000000000000000000000000000000081526004016116849190611c72565b60405180910390fd5b611696816119b4565b50565b600460009054906101000a900473ffffffffffffffffffffffffffffffffffffffff1681565b6060600860003373ffffffffffffffffffffffffffffffffffffffff1673ffffffffffffffffffffffffffffffffffffffff168152602001908152602001600020600101805480602002602001604051908101604052809291908181526020016000905b8282101561179157838290600052602060002090600602016040518060c0016040529081600082015481526020016001820154815260200160028201548152602001600382015481526020016004820154815260200160058201548152505081526020019060010190611723565b50505050905090565b6002600154036117d6576040517f3ee5aeb500000000000000000000000000000000000000000000000000000000815260040160405180910390fd5b6002600181905550565b81600101805490508110611829576040517f08c379a000000000000000000000000000000000000000000000000000000000815260040161182090612599565b60405180910390fd5b8160010160018360010180549050611841919061228a565b8154811061185257611851612009565b5b906000526020600020906006020182600101828154811061187657611875612009565b5b9060005260206000209060060201600082015481600001556001820154816001015560028201548160020155600382015481600301556004820154816004015560058201548160050155905050816001018054806118d7576118d66125b9565b5b600190038181906000526020600020906006020160008082016000905560018201600090556002820160009055600382016000905560048201600090556005820160009055505090555050565b60018081905550565b611935611b21565b73ffffffffffffffffffffffffffffffffffffffff16611953611534565b73ffffffffffffffffffffffffffffffffffffffff16146119b257611976611b21565b6040517f118cdaa70000000000000000000000000000000000000000000000000000000081526004016119a99190611c72565b60405180910390fd5b565b60008060009054906101000a900473ffffffffffffffffffffffffffffffffffffffff169050816000806101000a81548173ffffffffffffffffffffffffffffffffffffffff021916908373ffffffffffffffffffffffffffffffffffffffff1602179055508173ffffffffffffffffffffffffffffffffffffffff168173ffffffffffffffffffffffffffffffffffffffff167f8be0079c531659141344cd1fd0a4f28419497f9722a3daafe3b4186f6b6457e060405160405180910390a35050565b600080600860008573ffffffffffffffffffffffffffffffffffffffff1673ffffffffffffffffffffffffffffffffffffffff168152602001908152602001600020905060005b8160010180549050811015611b145783826001018281548110611ae557611ae4612009565b5b90600052602060002090600602016004015403611b0757600192505050611b1b565b8080600101915050611abf565b5060009150505b92915050565b600033905090565b600080fd5b6000819050919050565b611b4181611b2e565b8114611b4c57600080fd5b50565b600081359050611b5e81611b38565b92915050565b60008060408385031215611b7b57611b7a611b29565b5b6000611b8985828601611b4f565b9250506020611b9a85828601611b4f565b9150509250929050565b611bad81611b2e565b82525050565b6000602082019050611bc86000830184611ba4565b92915050565b600060208284031215611be457611be3611b29565b5b6000611bf284828501611b4f565b91505092915050565b60008115159050919050565b611c1081611bfb565b82525050565b6000602082019050611c2b6000830184611c07565b92915050565b600073ffffffffffffffffffffffffffffffffffffffff82169050919050565b6000611c5c82611c31565b9050919050565b611c6c81611c51565b82525050565b6000602082019050611c876000830184611c63565b92915050565b611c9681611c51565b8114611ca157600080fd5b50565b600081359050611cb381611c8d565b92915050565b600060208284031215611ccf57611cce611b29565b5b6000611cdd84828501611ca4565b91505092915050565b6000819050919050565b6000611d0b611d06611d0184611c31565b611ce6565b611c31565b9050919050565b6000611d1d82611cf0565b9050919050565b6000611d2f82611d12565b9050919050565b611d3f81611d24565b82525050565b6000602082019050611d5a6000830184611d36565b92915050565b600081519050919050565b600082825260208201905092915050565b6000819050602082019050919050565b611d9581611b2e565b82525050565b60c082016000820151611db16000850182611d8c565b506020820151611dc46020850182611d8c565b506040820151611dd76040850182611d8c565b506060820151611dea6060850182611d8c565b506080820151611dfd6080850182611d8c565b5060a0820151611e1060a0850182611d8c565b50505050565b6000611e228383611d9b565b60c08301905092915050565b6000602082019050919050565b6000611e4682611d60565b611e508185611d6b565b9350611e5b83611d7c565b8060005b83811015611e8c578151611e738882611e16565b9750611e7e83611e2e565b925050600181019050611e5f565b5085935050505092915050565b60006020820190508181036000830152611eb38184611e3b565b905092915050565b7f4e487b7100000000000000000000000000000000000000000000000000000000600052601160045260246000fd5b6000611ef582611b2e565b9150611f0083611b2e565b9250828202611f0e81611b2e565b91508282048414831517611f2557611f24611ebb565b5b5092915050565b7f4e487b7100000000000000000000000000000000000000000000000000000000600052601260045260246000fd5b6000611f6682611b2e565b9150611f7183611b2e565b925082611f8157611f80611f2c565b5b828204905092915050565b600082825260208201905092915050565b7f496e76616c6964206c6f636b20706572696f6400000000000000000000000000600082015250565b6000611fd3601383611f8c565b9150611fde82611f9d565b602082019050919050565b6000602082019050818103600083015261200281611fc6565b9050919050565b7f4e487b7100000000000000000000000000000000000000000000000000000000600052603260045260246000fd5b7f596f752063616e277420756e7374616b65207965740000000000000000000000600082015250565b600061206e601583611f8c565b915061207982612038565b602082019050919050565b6000602082019050818103600083015261209d81612061565b9050919050565b60006120af82611b2e565b91506120ba83611b2e565b92508282019050808211156120d2576120d1611ebb565b5b92915050565b6000815190506120e781611b38565b92915050565b60006020828403121561210357612102611b29565b5b6000612111848285016120d8565b91505092915050565b7f546865207374616b696e6720636f6e747261637420646f6573206e6f7420686160008201527f766520656e6f75676820746f6b656e7320617661696c61626c6520666f72207760208201527f69746864726177616c2e20506c65617365207761697420756e74696c206d6f7260408201527f6520746f6b656e732061726520617661696c61626c652e000000000000000000606082015250565b60006121c2607783611f8c565b91506121cd8261211a565b608082019050919050565b600060208201905081810360008301526121f1816121b5565b9050919050565b7f4e6f207374616b6520666f756e6420666f722074686973206c6f636b2070657260008201527f696f640000000000000000000000000000000000000000000000000000000000602082015250565b6000612254602383611f8c565b915061225f826121f8565b604082019050919050565b6000602082019050818103600083015261228381612247565b9050919050565b600061229582611b2e565b91506122a083611b2e565b92508282039050818111156122b8576122b7611ebb565b5b92915050565b60006040820190506122d36000830185611c63565b6122e06020830184611ba4565b9392505050565b6122f081611bfb565b81146122fb57600080fd5b50565b60008151905061230d816122e7565b92915050565b60006020828403121561232957612328611b29565b5b6000612337848285016122fe565b91505092915050565b7f55736572206e6f7420666f756e64000000000000000000000000000000000000600082015250565b6000612376600e83611f8c565b915061238182612340565b602082019050919050565b600060208201905081810360008301526123a581612369565b9050919050565b7f596f752063616e27742077697468647261772079657400000000000000000000600082015250565b60006123e2601683611f8c565b91506123ed826123ac565b602082019050919050565b60006020820190508181036000830152612411816123d5565b9050919050565b7f416d6f756e74206d7573742062652067726561746572207468616e2030000000600082015250565b600061244e601d83611f8c565b915061245982612418565b602082019050919050565b6000602082019050818103600083015261247d81612441565b9050919050565b7f416c7265616479207374616b656420666f722074686973206c6f636b2070657260008201527f696f640000000000000000000000000000000000000000000000000000000000602082015250565b60006124e0602383611f8c565b91506124eb82612484565b604082019050919050565b6000602082019050818103600083015261250f816124d3565b9050919050565b600060608201905061252b6000830186611c63565b6125386020830185611c63565b6125456040830184611ba4565b949350505050565b7f496e76616c696420696e64657800000000000000000000000000000000000000600082015250565b6000612583600d83611f8c565b915061258e8261254d565b602082019050919050565b600060208201905081810360008301526125b281612576565b9050919050565b7f4e487b7100000000000000000000000000000000000000000000000000000000600052603160045260246000fdfea2646970667358221220279aa6a6a28ca27171137074887a76374713001d94e458a3519620d87390a53764736f6c634300081b0033",
  "linkReferences": {},
  "deployedLinkReferences": {}
}