{
  "_format": "hh-sol-artifact-1",
  "contractName": "Staking",
  "sourceName": "contracts/Staking.sol",
  "abi": [
    {
      "inputs": [
        {
          "internalType": "uint256",
          "name": "_start",
          "type": "uint256"
        },
        {
          "internalType": "address",
          "name": "tokenAddress",
          "type": "address"
        }
      ],
      "stateMutability": "nonpayable",
      "type": "constructor"
    },
    {
      "inputs": [
        {
          "internalType": "address",
          "name": "owner",
          "type": "address"
        }
      ],
      "name": "OwnableInvalidOwner",
      "type": "error"
    },
    {
      "inputs": [
        {
          "internalType": "address",
          "name": "account",
          "type": "address"
        }
      ],
      "name": "OwnableUnauthorizedAccount",
      "type": "error"
    },
    {
      "inputs": [],
      "name": "ReentrancyGuardReentrantCall",
      "type": "error"
    },
    {
      "anonymous": false,
      "inputs": [
        {
          "indexed": true,
          "internalType": "address",
          "name": "previousOwner",
          "type": "address"
        },
        {
          "indexed": true,
          "internalType": "address",
          "name": "newOwner",
          "type": "address"
        }
      ],
      "name": "OwnershipTransferred",
      "type": "event"
    },
    {
      "anonymous": false,
      "inputs": [
        {
          "indexed": true,
          "internalType": "address",
          "name": "user",
          "type": "address"
        },
        {
          "indexed": false,
          "internalType": "uint256",
          "name": "amount",
          "type": "uint256"
        },
        {
          "indexed": false,
          "internalType": "uint256",
          "name": "lockPeriod",
          "type": "uint256"
        }
      ],
      "name": "Staked",
      "type": "event"
    },
    {
      "anonymous": false,
      "inputs": [
        {
          "indexed": true,
          "internalType": "address",
          "name": "user",
          "type": "address"
        },
        {
          "indexed": false,
          "internalType": "uint256",
          "name": "amount",
          "type": "uint256"
        }
      ],
      "name": "Unstaked",
      "type": "event"
    },
    {
      "anonymous": false,
      "inputs": [
        {
          "indexed": true,
          "internalType": "address",
          "name": "user",
          "type": "address"
        },
        {
          "indexed": false,
          "internalType": "uint256",
          "name": "amount",
          "type": "uint256"
        }
      ],
      "name": "Withdraw",
      "type": "event"
    },
    {
      "inputs": [
        {
          "internalType": "uint256",
          "name": "amount",
          "type": "uint256"
        },
        {
          "internalType": "uint256",
          "name": "rate",
          "type": "uint256"
        }
      ],
      "name": "calculateReward",
      "outputs": [
        {
          "internalType": "uint256",
          "name": "",
          "type": "uint256"
        }
      ],
      "stateMutability": "pure",
      "type": "function"
    },
    {
      "inputs": [
        {
          "internalType": "uint256",
          "name": "amount",
          "type": "uint256"
        }
      ],
      "name": "depositRewards",
      "outputs": [],
      "stateMutability": "nonpayable",
      "type": "function"
    },
    {
      "inputs": [
        {
          "internalType": "uint256",
          "name": "",
          "type": "uint256"
        },
        {
          "internalType": "uint256",
          "name": "",
          "type": "uint256"
        }
      ],
      "name": "extraRewardRates",
      "outputs": [
        {
          "internalType": "uint256",
          "name": "",
          "type": "uint256"
        }
      ],
      "stateMutability": "view",
      "type": "function"
    },
    {
      "inputs": [],
      "name": "fee",
      "outputs": [
        {
          "internalType": "uint256",
          "name": "",
          "type": "uint256"
        }
      ],
      "stateMutability": "view",
      "type": "function"
    },
    {
      "inputs": [],
      "name": "getAllUsers",
      "outputs": [
        {
          "components": [
            {
              "internalType": "address",
              "name": "account",
              "type": "address"
            },
            {
              "components": [
                {
                  "internalType": "uint256",
                  "name": "stakedAmount",
                  "type": "uint256"
                },
                {
                  "internalType": "uint256",
                  "name": "withdrawAmount",
                  "type": "uint256"
                },
                {
                  "internalType": "uint256",
                  "name": "rewardAmount",
                  "type": "uint256"
                },
                {
                  "internalType": "uint256",
                  "name": "start",
                  "type": "uint256"
                },
                {
                  "internalType": "uint256",
                  "name": "apy",
                  "type": "uint256"
                },
                {
                  "internalType": "uint256",
                  "name": "rewardRate",
                  "type": "uint256"
                }
              ],
              "internalType": "struct Staking.StakedData[]",
              "name": "stakes",
              "type": "tuple[]"
            }
          ],
          "internalType": "struct Staking.User[]",
          "name": "",
          "type": "tuple[]"
        }
      ],
      "stateMutability": "view",
      "type": "function"
    },
    {
      "inputs": [
        {
          "internalType": "uint256",
          "name": "leftPercent",
          "type": "uint256"
        },
        {
          "internalType": "uint256",
          "name": "lockPeriod",
          "type": "uint256"
        }
      ],
      "name": "getExtraRewardRateForExtendAPY",
      "outputs": [
        {
          "internalType": "uint256",
          "name": "",
          "type": "uint256"
        }
      ],
      "stateMutability": "view",
      "type": "function"
    },
    {
      "inputs": [
        {
          "internalType": "uint256",
          "name": "lockPeriod",
          "type": "uint256"
        }
      ],
      "name": "getInitialRewardRateForAPY",
      "outputs": [
        {
          "internalType": "uint256",
          "name": "",
          "type": "uint256"
        }
      ],
      "stateMutability": "view",
      "type": "function"
    },
    {
      "inputs": [],
      "name": "getMyCurrentRewardingAmount",
      "outputs": [
        {
          "internalType": "uint256",
          "name": "withdrawableAmount",
          "type": "uint256"
        }
      ],
      "stateMutability": "view",
      "type": "function"
    },
    {
      "inputs": [],
      "name": "getMyStakedHistory",
      "outputs": [
        {
          "components": [
            {
              "internalType": "uint256",
              "name": "stakedAmount",
              "type": "uint256"
            },
            {
              "internalType": "uint256",
              "name": "withdrawAmount",
              "type": "uint256"
            },
            {
              "internalType": "uint256",
              "name": "rewardAmount",
              "type": "uint256"
            },
            {
              "internalType": "uint256",
              "name": "start",
              "type": "uint256"
            },
            {
              "internalType": "uint256",
              "name": "apy",
              "type": "uint256"
            },
            {
              "internalType": "uint256",
              "name": "rewardRate",
              "type": "uint256"
            }
          ],
          "internalType": "struct Staking.StakedData[]",
          "name": "",
          "type": "tuple[]"
        }
      ],
      "stateMutability": "view",
      "type": "function"
    },
    {
      "inputs": [
        {
          "internalType": "uint256",
          "name": "_start",
          "type": "uint256"
        },
        {
          "internalType": "uint256",
          "name": "lockPeriod",
          "type": "uint256"
        }
      ],
      "name": "hasLockPeriodPassed",
      "outputs": [
        {
          "internalType": "bool",
          "name": "",
          "type": "bool"
        }
      ],
      "stateMutability": "view",
      "type": "function"
    },
    {
      "inputs": [],
      "name": "owner",
      "outputs": [
        {
          "internalType": "address",
          "name": "",
          "type": "address"
        }
      ],
      "stateMutability": "view",
      "type": "function"
    },
    {
      "inputs": [],
      "name": "renounceOwnership",
      "outputs": [],
      "stateMutability": "nonpayable",
      "type": "function"
    },
    {
      "inputs": [
        {
          "internalType": "uint256",
          "name": "",
          "type": "uint256"
        }
      ],
      "name": "rewardRates",
      "outputs": [
        {
          "internalType": "uint256",
          "name": "",
          "type": "uint256"
        }
      ],
      "stateMutability": "view",
      "type": "function"
    },
    {
      "inputs": [
        {
          "internalType": "uint256",
          "name": "_fee",
          "type": "uint256"
        }
      ],
      "name": "setFee",
      "outputs": [],
      "stateMutability": "nonpayable",
      "type": "function"
    },
    {
      "inputs": [
        {
          "internalType": "uint256",
          "name": "lockPeriod",
          "type": "uint256"
        },
        {
          "internalType": "uint256",
          "name": "rate",
          "type": "uint256"
        }
      ],
      "name": "setRewardRate",
      "outputs": [],
      "stateMutability": "nonpayable",
      "type": "function"
    },
    {
      "inputs": [
        {
          "internalType": "uint256",
          "name": "amount",
          "type": "uint256"
        },
        {
          "internalType": "uint256",
          "name": "lockPeriod",
          "type": "uint256"
        }
      ],
      "name": "stake",
      "outputs": [],
      "stateMutability": "nonpayable",
      "type": "function"
    },
    {
      "inputs": [],
      "name": "start",
      "outputs": [
        {
          "internalType": "uint256",
          "name": "",
          "type": "uint256"
        }
      ],
      "stateMutability": "view",
      "type": "function"
    },
    {
      "inputs": [],
      "name": "token",
      "outputs": [
        {
          "internalType": "contract IERC20",
          "name": "",
          "type": "address"
        }
      ],
      "stateMutability": "view",
      "type": "function"
    },
    {
      "inputs": [
        {
          "internalType": "address",
          "name": "newOwner",
          "type": "address"
        }
      ],
      "name": "transferOwnership",
      "outputs": [],
      "stateMutability": "nonpayable",
      "type": "function"
    },
    {
      "inputs": [
        {
          "internalType": "uint256",
          "name": "lockPeriod",
          "type": "uint256"
        }
      ],
      "name": "unstake",
      "outputs": [
        {
          "internalType": "uint256",
          "name": "",
          "type": "uint256"
        }
      ],
      "stateMutability": "nonpayable",
      "type": "function"
    },
    {
      "inputs": [
        {
          "internalType": "uint256",
          "name": "",
          "type": "uint256"
        }
      ],
      "name": "userAddresses",
      "outputs": [
        {
          "internalType": "address",
          "name": "",
          "type": "address"
        }
      ],
      "stateMutability": "view",
      "type": "function"
    },
    {
      "inputs": [
        {
          "internalType": "address",
          "name": "",
          "type": "address"
        }
      ],
      "name": "users",
      "outputs": [
        {
          "internalType": "address",
          "name": "account",
          "type": "address"
        }
      ],
      "stateMutability": "view",
      "type": "function"
    },
    {
      "inputs": [
        {
          "internalType": "uint256",
          "name": "lockPeriod",
          "type": "uint256"
        },
        {
          "internalType": "uint256",
          "name": "leftStakePercent",
          "type": "uint256"
        }
      ],
      "name": "withdraw",
      "outputs": [
        {
          "internalType": "uint256",
          "name": "",
          "type": "uint256"
        }
      ],
      "stateMutability": "nonpayable",
      "type": "function"
    }
  ],
  "bytecode": "0x6080604052600160025534801561001557600080fd5b50604051612e45380380612e4583398181016040528101906100379190610501565b33600073ffffffffffffffffffffffffffffffffffffffff168173ffffffffffffffffffffffffffffffffffffffff16036100aa5760006040517f1e4fbdf70000000000000000000000000000000000000000000000000000000081526004016100a19190610550565b60405180910390fd5b6100b9816103a460201b60201c565b50600180819055508160038190555080600460006101000a81548173ffffffffffffffffffffffffffffffffffffffff021916908373ffffffffffffffffffffffffffffffffffffffff160217905550600560066000601e815260200190815260200160002081905550600860066000603c815260200190815260200160002081905550600a60066000605a815260200190815260200160002081905550600c600660006078815260200190815260200160002081905550600f6006600060b4815260200190815260200160002081905550603260076000601e815260200190815260200160002060006064815260200190815260200160002081905550601960076000601e815260200190815260200160002060006032815260200190815260200160002081905550600c60076000601e815260200190815260200160002060006019815260200190815260200160002081905550606460076000603c815260200190815260200160002060006064815260200190815260200160002081905550603260076000603c815260200190815260200160002060006032815260200190815260200160002081905550601960076000603c81526020019081526020016000206000601981526020019081526020016000208190555060c860076000605a815260200190815260200160002060006064815260200190815260200160002081905550606460076000605a81526020019081526020016000206000603281526020019081526020016000208190555061012c60076000607881526020019081526020016000206000606481526020019081526020016000208190555060966007600060788152602001908152602001600020600060328152602001908152602001600020819055506101906007600060b481526020019081526020016000206000606481526020019081526020016000208190555060c86007600060b4815260200190815260200160002060006032815260200190815260200160002081905550505061056b565b60008060009054906101000a900473ffffffffffffffffffffffffffffffffffffffff169050816000806101000a81548173ffffffffffffffffffffffffffffffffffffffff021916908373ffffffffffffffffffffffffffffffffffffffff1602179055508173ffffffffffffffffffffffffffffffffffffffff168173ffffffffffffffffffffffffffffffffffffffff167f8be0079c531659141344cd1fd0a4f28419497f9722a3daafe3b4186f6b6457e060405160405180910390a35050565b600080fd5b6000819050919050565b6104808161046d565b811461048b57600080fd5b50565b60008151905061049d81610477565b92915050565b600073ffffffffffffffffffffffffffffffffffffffff82169050919050565b60006104ce826104a3565b9050919050565b6104de816104c3565b81146104e957600080fd5b50565b6000815190506104fb816104d5565b92915050565b6000806040838503121561051857610517610468565b5b60006105268582860161048e565b9250506020610537858286016104ec565b9150509250929050565b61054a816104c3565b82525050565b60006020820190506105656000830184610541565b92915050565b6128cb8061057a6000396000f3fe608060405234801561001057600080fd5b506004361061014d5760003560e01c80638da5cb5b116100c3578063e2842d791161007c578063e2842d79146103c4578063f011f2f4146103e2578063f2caeb1e14610412578063f2fde38b14610442578063fc0c546a1461045e578063ffcf4b581461047c5761014d565b80638da5cb5b146102da5780639eddc687146102f8578063a87430ba14610328578063be9a655514610358578063da8ce94814610376578063ddca3f43146103a65761014d565b8063669fb70511610115578063669fb7051461022e57806369fe0e2d1461024c578063715018a6146102685780637b0472f0146102725780638418e6791461028e5780638bdf67f2146102be5761014d565b806313ed0846146101525780632e17de78146101825780633462e0a8146101b2578063441a3e70146101ce578063502c9bd5146101fe575b600080fd5b61016c60048036038101906101679190611d3a565b61049a565b6040516101799190611d89565b60405180910390f35b61019c60048036038101906101979190611da4565b6104bc565b6040516101a99190611d89565b60405180910390f35b6101cc60048036038101906101c79190611d3a565b610990565b005b6101e860048036038101906101e39190611d3a565b610a25565b6040516101f59190611d89565b60405180910390f35b61021860048036038101906102139190611da4565b610f93565b6040516102259190611e12565b60405180910390f35b610236610fd2565b6040516102439190611d89565b60405180910390f35b61026660048036038101906102619190611da4565b611088565b005b61027061109a565b005b61028c60048036038101906102879190611d3a565b6110ae565b005b6102a860048036038101906102a39190611d3a565b61151f565b6040516102b59190611e48565b60405180910390f35b6102d860048036038101906102d39190611da4565b611538565b005b6102e26115e6565b6040516102ef9190611e12565b60405180910390f35b610312600480360381019061030d9190611da4565b61160f565b60405161031f9190611d89565b60405180910390f35b610342600480360381019061033d9190611e8f565b61162c565b60405161034f9190611e12565b60405180910390f35b61036061166a565b60405161036d9190611d89565b60405180910390f35b610390600480360381019061038b9190611d3a565b611670565b60405161039d9190611d89565b60405180910390f35b6103ae611695565b6040516103bb9190611d89565b60405180910390f35b6103cc61169b565b6040516103d99190612103565b60405180910390f35b6103fc60048036038101906103f79190611d3a565b6118b6565b6040516104099190611d89565b60405180910390f35b61042c60048036038101906104279190611da4565b6118e5565b6040516104399190611d89565b60405180910390f35b61045c60048036038101906104579190611e8f565b6118fd565b005b610466611983565b6040516104739190612184565b60405180910390f35b6104846119a9565b604051610491919061220e565b60405180910390f35b6000606482846104aa919061225f565b6104b491906122d0565b905092915050565b60006104c6611a84565b81601e8114806104d65750603c81145b806104e15750605a81145b806104ec5750607881145b806104f7575060b481145b610536576040517f08c379a000000000000000000000000000000000000000000000000000000000815260040161052d9061235e565b60405180910390fd5b6000600860003373ffffffffffffffffffffffffffffffffffffffff1673ffffffffffffffffffffffffffffffffffffffff16815260200190815260200160002090506000806000805b84600101805490508110156107a35760008560010182815481106105a7576105a661237e565b5b90600052602060002090600602019050888160040154146105c85750610796565b6105da8160030154826004015461151f565b1561061a576040517f08c379a0000000000000000000000000000000000000000000000000000000008152600401610611906123f9565b60405180910390fd5b600061062e8260000154836005015461049a565b905060646002548284600001546106459190612419565b61064f919061225f565b61065991906122d0565b94508481836000015461066c9190612419565b610676919061244d565b95506001876001018054905061068c919061244d565b83101561072e5786600101600188600101805490506106ab919061244d565b815481106106bc576106bb61237e565b5b90600052602060002090600602018760010184815481106106e0576106df61237e565b5b90600052602060002090600602016000820154816000015560018201548160010155600282015481600201556003820154816003015560048201548160040155600582015481600501559050505b8660010180548061074257610741612481565b5b600190038181906000526020600020906006020160008082016000905560018201600090556002820160009055600382016000905560048201600090556005820160009055505090556001935050506107a3565b8080600101915050610580565b50806107e4576040517f08c379a00000000000000000000000000000000000000000000000000000000081526004016107db90612522565b60405180910390fd5b600460009054906101000a900473ffffffffffffffffffffffffffffffffffffffff1673ffffffffffffffffffffffffffffffffffffffff1663a9059cbb33856040518363ffffffff1660e01b8152600401610841929190612542565b6020604051808303816000875af1158015610860573d6000803e3d6000fd5b505050506040513d601f19601f820116820180604052508101906108849190612597565b50600460009054906101000a900473ffffffffffffffffffffffffffffffffffffffff1673ffffffffffffffffffffffffffffffffffffffff1663a9059cbb6108cb6115e6565b846040518363ffffffff1660e01b81526004016108e9929190612542565b6020604051808303816000875af1158015610908573d6000803e3d6000fd5b505050506040513d601f19601f8201168201806040525081019061092c9190612597565b503373ffffffffffffffffffffffffffffffffffffffff167f0f5bb82176feb1b5e747e28471aa92156a04d9f3ab9f45f28e2d704232b93f75846040516109739190611d89565b60405180910390a2829550505050505061098b611aca565b919050565b610998611ad3565b81601e8114806109a85750603c81145b806109b35750605a81145b806109be5750607881145b806109c9575060b481145b610a08576040517f08c379a00000000000000000000000000000000000000000000000000000000081526004016109ff9061235e565b60405180910390fd5b816006600085815260200190815260200160002081905550505050565b6000610a2f611a84565b82601e811480610a3f5750603c81145b80610a4a5750605a81145b80610a555750607881145b80610a60575060b481145b610a9f576040517f08c379a0000000000000000000000000000000000000000000000000000000008152600401610a969061235e565b60405180910390fd5b6000600860003373ffffffffffffffffffffffffffffffffffffffff1673ffffffffffffffffffffffffffffffffffffffff1681526020019081526020016000209050600073ffffffffffffffffffffffffffffffffffffffff168160000160009054906101000a900473ffffffffffffffffffffffffffffffffffffffff1673ffffffffffffffffffffffffffffffffffffffff1603610b75576040517f08c379a0000000000000000000000000000000000000000000000000000000008152600401610b6c90612610565b60405180910390fd5b6000806000805b8460010180549050811015610da5576000856001018281548110610ba357610ba261237e565b5b9060005260206000209060060201905089816004015414610bc45750610d98565b600660008b815260200190815260200160002054816004015411610c1d576040517f08c379a0000000000000000000000000000000000000000000000000000000008152600401610c149061267c565b60405180910390fd5b610c2f8160030154826004015461151f565b15610c6f576040517f08c379a0000000000000000000000000000000000000000000000000000000008152600401610c66906126e8565b60405180910390fd5b6000610c838260000154836005015461049a565b9050600060648b8460000154610c99919061225f565b610ca391906122d0565b8360000154610cb2919061244d565b905060646002548284610cc59190612419565b610ccf919061225f565b610cd991906122d0565b9550858282610ce89190612419565b610cf2919061244d565b96506000610d008c8e6118b6565b90506000606482610d1191906122d0565b905080856005016000828254610d279190612419565b9250508190555083856002016000828254610d429190612419565b925050819055508383610d559190612419565b856001016000828254610d689190612419565b9250508190555082856000016000828254610d83919061244d565b92505081905550600196505050505050610da5565b8080600101915050610b7c565b5080610de6576040517f08c379a0000000000000000000000000000000000000000000000000000000008152600401610ddd90612522565b60405180910390fd5b600460009054906101000a900473ffffffffffffffffffffffffffffffffffffffff1673ffffffffffffffffffffffffffffffffffffffff1663a9059cbb33856040518363ffffffff1660e01b8152600401610e43929190612542565b6020604051808303816000875af1158015610e62573d6000803e3d6000fd5b505050506040513d601f19601f82011682018060405250810190610e869190612597565b50600460009054906101000a900473ffffffffffffffffffffffffffffffffffffffff1673ffffffffffffffffffffffffffffffffffffffff1663a9059cbb610ecd6115e6565b846040518363ffffffff1660e01b8152600401610eeb929190612542565b6020604051808303816000875af1158015610f0a573d6000803e3d6000fd5b505050506040513d601f19601f82011682018060405250810190610f2e9190612597565b503373ffffffffffffffffffffffffffffffffffffffff167f884edad9ce6fa2440d8a54cc123490eb96d2768479d49ff9c7366125a942436484604051610f759190611d89565b60405180910390a28295505050505050610f8d611aca565b92915050565b60058181548110610fa357600080fd5b906000526020600020016000915054906101000a900473ffffffffffffffffffffffffffffffffffffffff1681565b600080600860003373ffffffffffffffffffffffffffffffffffffffff1673ffffffffffffffffffffffffffffffffffffffff168152602001908152602001600020905060005b81600101805490508110156110835760008260010182815481106110405761103f61237e565b5b9060005260206000209060060201905060006110648260000154836005015461049a565b905080856110729190612419565b945050508080600101915050611019565b505090565b611090611ad3565b8060028190555050565b6110a2611ad3565b6110ac6000611b5a565b565b6110b6611a84565b80601e8114806110c65750603c81145b806110d15750605a81145b806110dc5750607881145b806110e7575060b481145b611126576040517f08c379a000000000000000000000000000000000000000000000000000000000815260040161111d9061235e565b60405180910390fd5b60008311611169576040517f08c379a000000000000000000000000000000000000000000000000000000000815260040161116090612754565b60405180910390fd5b6111733383611c1e565b156111b3576040517f08c379a00000000000000000000000000000000000000000000000000000000081526004016111aa906127e6565b60405180910390fd5b60006040518060c00160405280858152602001600081526020016000815260200142815260200184815260200160066000868152602001908152602001600020548152509050600073ffffffffffffffffffffffffffffffffffffffff16600860003373ffffffffffffffffffffffffffffffffffffffff1673ffffffffffffffffffffffffffffffffffffffff16815260200190815260200160002060000160009054906101000a900473ffffffffffffffffffffffffffffffffffffffff1673ffffffffffffffffffffffffffffffffffffffff16036113745733600860003373ffffffffffffffffffffffffffffffffffffffff1673ffffffffffffffffffffffffffffffffffffffff16815260200190815260200160002060000160006101000a81548173ffffffffffffffffffffffffffffffffffffffff021916908373ffffffffffffffffffffffffffffffffffffffff1602179055506005339080600181540180825580915050600190039060005260206000200160009091909190916101000a81548173ffffffffffffffffffffffffffffffffffffffff021916908373ffffffffffffffffffffffffffffffffffffffff1602179055505b600860003373ffffffffffffffffffffffffffffffffffffffff1673ffffffffffffffffffffffffffffffffffffffff168152602001908152602001600020600101819080600181540180825580915050600190039060005260206000209060060201600090919091909150600082015181600001556020820151816001015560408201518160020155606082015181600301556080820151816004015560a082015181600501555050600460009054906101000a900473ffffffffffffffffffffffffffffffffffffffff1673ffffffffffffffffffffffffffffffffffffffff166323b872dd3330876040518463ffffffff1660e01b815260040161147d93929190612806565b6020604051808303816000875af115801561149c573d6000803e3d6000fd5b505050506040513d601f19601f820116820180604052508101906114c09190612597565b503373ffffffffffffffffffffffffffffffffffffffff167f1449c6dd7851abc30abf37f57715f492010519147cc2652fbc38202c18a6ee90858560405161150992919061283d565b60405180910390a2505061151b611aca565b5050565b6000818361152d9190612419565b421015905092915050565b611540611ad3565b600460009054906101000a900473ffffffffffffffffffffffffffffffffffffffff1673ffffffffffffffffffffffffffffffffffffffff166323b872dd3330846040518463ffffffff1660e01b815260040161159f93929190612806565b6020604051808303816000875af11580156115be573d6000803e3d6000fd5b505050506040513d601f19601f820116820180604052508101906115e29190612597565b5050565b60008060009054906101000a900473ffffffffffffffffffffffffffffffffffffffff16905090565b600060066000838152602001908152602001600020549050919050565b60086020528060005260406000206000915090508060000160009054906101000a900473ffffffffffffffffffffffffffffffffffffffff16905081565b60035481565b6007602052816000526040600020602052806000526040600020600091509150505481565b60025481565b6060600060058054905067ffffffffffffffff8111156116be576116bd612866565b5b6040519080825280602002602001820160405280156116f757816020015b6116e4611ccf565b8152602001906001900390816116dc5790505b50905060005b6005805490508110156118ae5760086000600583815481106117225761172161237e565b5b9060005260206000200160009054906101000a900473ffffffffffffffffffffffffffffffffffffffff1673ffffffffffffffffffffffffffffffffffffffff1673ffffffffffffffffffffffffffffffffffffffff1681526020019081526020016000206040518060400160405290816000820160009054906101000a900473ffffffffffffffffffffffffffffffffffffffff1673ffffffffffffffffffffffffffffffffffffffff1673ffffffffffffffffffffffffffffffffffffffff16815260200160018201805480602002602001604051908101604052809291908181526020016000905b8282101561187b57838290600052602060002090600602016040518060c001604052908160008201548152602001600182015481526020016002820154815260200160038201548152602001600482015481526020016005820154815250508152602001906001019061180d565b50505050815250508282815181106118965761189561237e565b5b602002602001018190525080806001019150506116fd565b508091505090565b600060076000838152602001908152602001600020600084815260200190815260200160002054905092915050565b60066020528060005260406000206000915090505481565b611905611ad3565b600073ffffffffffffffffffffffffffffffffffffffff168173ffffffffffffffffffffffffffffffffffffffff16036119775760006040517f1e4fbdf700000000000000000000000000000000000000000000000000000000815260040161196e9190611e12565b60405180910390fd5b61198081611b5a565b50565b600460009054906101000a900473ffffffffffffffffffffffffffffffffffffffff1681565b6060600860003373ffffffffffffffffffffffffffffffffffffffff1673ffffffffffffffffffffffffffffffffffffffff168152602001908152602001600020600101805480602002602001604051908101604052809291908181526020016000905b82821015611a7b57838290600052602060002090600602016040518060c0016040529081600082015481526020016001820154815260200160028201548152602001600382015481526020016004820154815260200160058201548152505081526020019060010190611a0d565b50505050905090565b600260015403611ac0576040517f3ee5aeb500000000000000000000000000000000000000000000000000000000815260040160405180910390fd5b6002600181905550565b60018081905550565b611adb611cc7565b73ffffffffffffffffffffffffffffffffffffffff16611af96115e6565b73ffffffffffffffffffffffffffffffffffffffff1614611b5857611b1c611cc7565b6040517f118cdaa7000000000000000000000000000000000000000000000000000000008152600401611b4f9190611e12565b60405180910390fd5b565b60008060009054906101000a900473ffffffffffffffffffffffffffffffffffffffff169050816000806101000a81548173ffffffffffffffffffffffffffffffffffffffff021916908373ffffffffffffffffffffffffffffffffffffffff1602179055508173ffffffffffffffffffffffffffffffffffffffff168173ffffffffffffffffffffffffffffffffffffffff167f8be0079c531659141344cd1fd0a4f28419497f9722a3daafe3b4186f6b6457e060405160405180910390a35050565b600080600860008573ffffffffffffffffffffffffffffffffffffffff1673ffffffffffffffffffffffffffffffffffffffff168152602001908152602001600020905060005b8160010180549050811015611cba5783826001018281548110611c8b57611c8a61237e565b5b90600052602060002090600602016004015403611cad57600192505050611cc1565b8080600101915050611c65565b5060009150505b92915050565b600033905090565b6040518060400160405280600073ffffffffffffffffffffffffffffffffffffffff168152602001606081525090565b600080fd5b6000819050919050565b611d1781611d04565b8114611d2257600080fd5b50565b600081359050611d3481611d0e565b92915050565b60008060408385031215611d5157611d50611cff565b5b6000611d5f85828601611d25565b9250506020611d7085828601611d25565b9150509250929050565b611d8381611d04565b82525050565b6000602082019050611d9e6000830184611d7a565b92915050565b600060208284031215611dba57611db9611cff565b5b6000611dc884828501611d25565b91505092915050565b600073ffffffffffffffffffffffffffffffffffffffff82169050919050565b6000611dfc82611dd1565b9050919050565b611e0c81611df1565b82525050565b6000602082019050611e276000830184611e03565b92915050565b60008115159050919050565b611e4281611e2d565b82525050565b6000602082019050611e5d6000830184611e39565b92915050565b611e6c81611df1565b8114611e7757600080fd5b50565b600081359050611e8981611e63565b92915050565b600060208284031215611ea557611ea4611cff565b5b6000611eb384828501611e7a565b91505092915050565b600081519050919050565b600082825260208201905092915050565b6000819050602082019050919050565b611ef181611df1565b82525050565b600081519050919050565b600082825260208201905092915050565b6000819050602082019050919050565b611f2c81611d04565b82525050565b60c082016000820151611f486000850182611f23565b506020820151611f5b6020850182611f23565b506040820151611f6e6040850182611f23565b506060820151611f816060850182611f23565b506080820151611f946080850182611f23565b5060a0820151611fa760a0850182611f23565b50505050565b6000611fb98383611f32565b60c08301905092915050565b6000602082019050919050565b6000611fdd82611ef7565b611fe78185611f02565b9350611ff283611f13565b8060005b8381101561202357815161200a8882611fad565b975061201583611fc5565b925050600181019050611ff6565b5085935050505092915050565b60006040830160008301516120486000860182611ee8565b50602083015184820360208601526120608282611fd2565b9150508091505092915050565b60006120798383612030565b905092915050565b6000602082019050919050565b600061209982611ebc565b6120a38185611ec7565b9350836020820285016120b585611ed8565b8060005b858110156120f157848403895281516120d2858261206d565b94506120dd83612081565b925060208a019950506001810190506120b9565b50829750879550505050505092915050565b6000602082019050818103600083015261211d818461208e565b905092915050565b6000819050919050565b600061214a61214561214084611dd1565b612125565b611dd1565b9050919050565b600061215c8261212f565b9050919050565b600061216e82612151565b9050919050565b61217e81612163565b82525050565b60006020820190506121996000830184612175565b92915050565b600082825260208201905092915050565b60006121bb82611ef7565b6121c5818561219f565b93506121d083611f13565b8060005b838110156122015781516121e88882611fad565b97506121f383611fc5565b9250506001810190506121d4565b5085935050505092915050565b6000602082019050818103600083015261222881846121b0565b905092915050565b7f4e487b7100000000000000000000000000000000000000000000000000000000600052601160045260246000fd5b600061226a82611d04565b915061227583611d04565b925082820261228381611d04565b9150828204841483151761229a57612299612230565b5b5092915050565b7f4e487b7100000000000000000000000000000000000000000000000000000000600052601260045260246000fd5b60006122db82611d04565b91506122e683611d04565b9250826122f6576122f56122a1565b5b828204905092915050565b600082825260208201905092915050565b7f496e76616c6964206c6f636b20706572696f6400000000000000000000000000600082015250565b6000612348601383612301565b915061235382612312565b602082019050919050565b600060208201905081810360008301526123778161233b565b9050919050565b7f4e487b7100000000000000000000000000000000000000000000000000000000600052603260045260246000fd5b7f596f752063616e277420756e7374616b65207965740000000000000000000000600082015250565b60006123e3601583612301565b91506123ee826123ad565b602082019050919050565b60006020820190508181036000830152612412816123d6565b9050919050565b600061242482611d04565b915061242f83611d04565b925082820190508082111561244757612446612230565b5b92915050565b600061245882611d04565b915061246383611d04565b925082820390508181111561247b5761247a612230565b5b92915050565b7f4e487b7100000000000000000000000000000000000000000000000000000000600052603160045260246000fd5b7f4e6f207374616b6520666f756e6420666f722074686973206c6f636b2070657260008201527f696f640000000000000000000000000000000000000000000000000000000000602082015250565b600061250c602383612301565b9150612517826124b0565b604082019050919050565b6000602082019050818103600083015261253b816124ff565b9050919050565b60006040820190506125576000830185611e03565b6125646020830184611d7a565b9392505050565b61257481611e2d565b811461257f57600080fd5b50565b6000815190506125918161256b565b92915050565b6000602082840312156125ad576125ac611cff565b5b60006125bb84828501612582565b91505092915050565b7f55736572206e6f7420666f756e64000000000000000000000000000000000000600082015250565b60006125fa600e83612301565b9150612605826125c4565b602082019050919050565b60006020820190508181036000830152612629816125ed565b9050919050565b7f596f75206861766520616c72656164792077697468647261776564206f6e6365600082015250565b6000612666602083612301565b915061267182612630565b602082019050919050565b6000602082019050818103600083015261269581612659565b9050919050565b7f596f752063616e27742077697468647261772079657400000000000000000000600082015250565b60006126d2601683612301565b91506126dd8261269c565b602082019050919050565b60006020820190508181036000830152612701816126c5565b9050919050565b7f416d6f756e74206d7573742062652067726561746572207468616e2030000000600082015250565b600061273e601d83612301565b915061274982612708565b602082019050919050565b6000602082019050818103600083015261276d81612731565b9050919050565b7f416c7265616479207374616b656420666f722074686973206c6f636b2070657260008201527f696f640000000000000000000000000000000000000000000000000000000000602082015250565b60006127d0602383612301565b91506127db82612774565b604082019050919050565b600060208201905081810360008301526127ff816127c3565b9050919050565b600060608201905061281b6000830186611e03565b6128286020830185611e03565b6128356040830184611d7a565b949350505050565b60006040820190506128526000830185611d7a565b61285f6020830184611d7a565b9392505050565b7f4e487b7100000000000000000000000000000000000000000000000000000000600052604160045260246000fdfea2646970667358221220d5d5fc0de4a14c5ccc4bb9e189f78c8fa3f3d1c8666b23ce8747967eb648c2db64736f6c634300081b0033",
  "linkReferences": {},
  "deployedLinkReferences": {}
}